{
  "contractName": "PolyTokenFaucet",
  "abi": [
    {
      "inputs": [],
      "stateMutability": "nonpayable",
      "type": "constructor"
    },
    {
      "anonymous": false,
      "inputs": [
        {
          "indexed": true,
          "internalType": "address",
          "name": "owner",
          "type": "address"
        },
        {
          "indexed": true,
          "internalType": "address",
          "name": "spender",
          "type": "address"
        },
        {
          "indexed": false,
          "internalType": "uint256",
          "name": "value",
          "type": "uint256"
        }
      ],
      "name": "Approval",
      "type": "event"
    },
    {
      "anonymous": false,
      "inputs": [
        {
          "indexed": true,
          "internalType": "address",
          "name": "from",
          "type": "address"
        },
        {
          "indexed": true,
          "internalType": "address",
          "name": "to",
          "type": "address"
        },
        {
          "indexed": false,
          "internalType": "uint256",
          "name": "value",
          "type": "uint256"
        }
      ],
      "name": "Transfer",
      "type": "event"
    },
    {
      "inputs": [],
      "name": "decimals",
      "outputs": [
        {
          "internalType": "uint8",
          "name": "",
          "type": "uint8"
        }
      ],
      "stateMutability": "view",
      "type": "function"
    },
    {
      "inputs": [],
      "name": "name",
      "outputs": [
        {
          "internalType": "string",
          "name": "",
          "type": "string"
        }
      ],
      "stateMutability": "view",
      "type": "function"
    },
    {
      "inputs": [],
      "name": "symbol",
      "outputs": [
        {
          "internalType": "string",
          "name": "",
          "type": "string"
        }
      ],
      "stateMutability": "view",
      "type": "function"
    },
    {
      "inputs": [
        {
          "internalType": "uint256",
          "name": "_amount",
          "type": "uint256"
        },
        {
          "internalType": "address",
          "name": "_recipient",
          "type": "address"
        }
      ],
      "name": "getTokens",
      "outputs": [
        {
          "internalType": "bool",
          "name": "",
          "type": "bool"
        }
      ],
      "stateMutability": "nonpayable",
      "type": "function"
    },
    {
      "inputs": [
        {
          "internalType": "address",
          "name": "_to",
          "type": "address"
        },
        {
          "internalType": "uint256",
          "name": "_value",
          "type": "uint256"
        }
      ],
      "name": "transfer",
      "outputs": [
        {
          "internalType": "bool",
          "name": "",
          "type": "bool"
        }
      ],
      "stateMutability": "nonpayable",
      "type": "function"
    },
    {
      "inputs": [
        {
          "internalType": "address",
          "name": "_from",
          "type": "address"
        },
        {
          "internalType": "address",
          "name": "_to",
          "type": "address"
        },
        {
          "internalType": "uint256",
          "name": "_value",
          "type": "uint256"
        }
      ],
      "name": "transferFrom",
      "outputs": [
        {
          "internalType": "bool",
          "name": "",
          "type": "bool"
        }
      ],
      "stateMutability": "nonpayable",
      "type": "function"
    },
    {
      "inputs": [
        {
          "internalType": "address",
          "name": "_owner",
          "type": "address"
        }
      ],
      "name": "balanceOf",
      "outputs": [
        {
          "internalType": "uint256",
          "name": "balance",
          "type": "uint256"
        }
      ],
      "stateMutability": "view",
      "type": "function"
    },
    {
      "inputs": [
        {
          "internalType": "address",
          "name": "_spender",
          "type": "address"
        },
        {
          "internalType": "uint256",
          "name": "_value",
          "type": "uint256"
        }
      ],
      "name": "approve",
      "outputs": [
        {
          "internalType": "bool",
          "name": "",
          "type": "bool"
        }
      ],
      "stateMutability": "nonpayable",
      "type": "function"
    },
    {
      "inputs": [
        {
          "internalType": "address",
          "name": "_owner",
          "type": "address"
        },
        {
          "internalType": "address",
          "name": "_spender",
          "type": "address"
        }
      ],
      "name": "allowance",
      "outputs": [
        {
          "internalType": "uint256",
          "name": "remaining",
          "type": "uint256"
        }
      ],
      "stateMutability": "view",
      "type": "function"
    },
    {
      "inputs": [],
      "name": "totalSupply",
      "outputs": [
        {
          "internalType": "uint256",
          "name": "",
          "type": "uint256"
        }
      ],
      "stateMutability": "view",
      "type": "function"
    },
    {
      "inputs": [
        {
          "internalType": "address",
          "name": "_spender",
          "type": "address"
        },
        {
          "internalType": "uint256",
          "name": "_addedValue",
          "type": "uint256"
        }
      ],
      "name": "increaseApproval",
      "outputs": [
        {
          "internalType": "bool",
          "name": "",
          "type": "bool"
        }
      ],
      "stateMutability": "nonpayable",
      "type": "function"
    },
    {
      "inputs": [
        {
          "internalType": "address",
          "name": "_spender",
          "type": "address"
        },
        {
          "internalType": "uint256",
          "name": "_subtractedValue",
          "type": "uint256"
        }
      ],
      "name": "decreaseApproval",
      "outputs": [
        {
          "internalType": "bool",
          "name": "",
          "type": "bool"
        }
      ],
      "stateMutability": "nonpayable",
      "type": "function"
    }
  ],
  "bytecode": "0x60806040526040518060400160405280601081526020017f506f6c796d617468204e6574776f726b00000000000000000000000000000000815250600190816200004a919062000420565b506040518060400160405280600481526020017f504f4c59000000000000000000000000000000000000000000000000000000008152506003908162000091919062000420565b503480156200009f57600080fd5b506012600260006101000a81548160ff021916908360ff160217905550600260009054906101000a900460ff16600a620000da919062000697565b620f4240620000ea9190620006e8565b600081905550600054600460003373ffffffffffffffffffffffffffffffffffffffff1673ffffffffffffffffffffffffffffffffffffffff168152602001908152602001600020819055503373ffffffffffffffffffffffffffffffffffffffff16600073ffffffffffffffffffffffffffffffffffffffff167fddf252ad1be2c89b69c2b068fc378daa952ba7f163c4a11628f55a4df523b3ef60005460405162000198919062000744565b60405180910390a362000761565b600081519050919050565b7f4e487b7100000000000000000000000000000000000000000000000000000000600052604160045260246000fd5b7f4e487b7100000000000000000000000000000000000000000000000000000000600052602260045260246000fd5b600060028204905060018216806200022857607f821691505b6020821081036200023e576200023d620001e0565b5b50919050565b60008190508160005260206000209050919050565b60006020601f8301049050919050565b600082821b905092915050565b600060088302620002a87fffffffffffffffffffffffffffffffffffffffffffffffffffffffffffffffff8262000269565b620002b4868362000269565b95508019841693508086168417925050509392505050565b6000819050919050565b6000819050919050565b600062000301620002fb620002f584620002cc565b620002d6565b620002cc565b9050919050565b6000819050919050565b6200031d83620002e0565b620003356200032c8262000308565b84845462000276565b825550505050565b600090565b6200034c6200033d565b6200035981848462000312565b505050565b5b8181101562000381576200037560008262000342565b6001810190506200035f565b5050565b601f821115620003d0576200039a8162000244565b620003a58462000259565b81016020851015620003b5578190505b620003cd620003c48562000259565b8301826200035e565b50505b505050565b600082821c905092915050565b6000620003f560001984600802620003d5565b1980831691505092915050565b6000620004108383620003e2565b9150826002028217905092915050565b6200042b82620001a6565b67ffffffffffffffff811115620004475762000446620001b1565b5b6200045382546200020f565b6200046082828562000385565b600060209050601f83116001811462000498576000841562000483578287015190505b6200048f858262000402565b865550620004ff565b601f198416620004a88662000244565b60005b82811015620004d257848901518255600182019150602085019450602081019050620004ab565b86831015620004f25784890151620004ee601f891682620003e2565b8355505b6001600288020188555050505b505050505050565b7f4e487b7100000000000000000000000000000000000000000000000000000000600052601160045260246000fd5b60008160011c9050919050565b6000808291508390505b600185111562000595578086048111156200056d576200056c62000507565b5b60018516156200057d5780820291505b80810290506200058d8562000536565b94506200054d565b94509492505050565b600082620005b0576001905062000683565b81620005c0576000905062000683565b8160018114620005d95760028114620005e4576200061a565b600191505062000683565b60ff841115620005f957620005f862000507565b5b8360020a91508482111562000613576200061262000507565b5b5062000683565b5060208310610133831016604e8410600b8410161715620006545782820a9050838111156200064e576200064d62000507565b5b62000683565b62000663848484600162000543565b925090508184048111156200067d576200067c62000507565b5b81810290505b9392505050565b600060ff82169050919050565b6000620006a482620002cc565b9150620006b1836200068a565b9250620006e07fffffffffffffffffffffffffffffffffffffffffffffffffffffffffffffffff84846200059e565b905092915050565b6000620006f582620002cc565b91506200070283620002cc565b92508282026200071281620002cc565b915082820484148315176200072c576200072b62000507565b5b5092915050565b6200073e81620002cc565b82525050565b60006020820190506200075b600083018462000733565b92915050565b611acd80620007716000396000f3fe608060405234801561001057600080fd5b50600436106100b45760003560e01c8063661884631161007157806366188463146101a357806370a08231146101d357806395d89b4114610203578063a9059cbb14610221578063d73dd62314610251578063dd62ed3e14610281576100b4565b806306fdde03146100b9578063095ea7b3146100d757806318160ddd1461010757806323b872dd146101255780632570e31e14610155578063313ce56714610185575b600080fd5b6100c16102b1565b6040516100ce91906112e6565b60405180910390f35b6100f160048036038101906100ec91906113a1565b61033f565b6040516100fe91906113fc565b60405180910390f35b61010f610431565b60405161011c9190611426565b60405180910390f35b61013f600480360381019061013a9190611441565b61043a565b60405161014c91906113fc565b60405180910390f35b61016f600480360381019061016a9190611494565b610894565b60405161017c91906113fc565b60405180910390f35b61018d610a91565b60405161019a91906114f0565b60405180910390f35b6101bd60048036038101906101b891906113a1565b610aa4565b6040516101ca91906113fc565b60405180910390f35b6101ed60048036038101906101e8919061150b565b610d35565b6040516101fa9190611426565b60405180910390f35b61020b610d7e565b60405161021891906112e6565b60405180910390f35b61023b600480360381019061023691906113a1565b610e0c565b60405161024891906113fc565b60405180910390f35b61026b600480360381019061026691906113a1565b610fa7565b60405161027891906113fc565b60405180910390f35b61029b60048036038101906102969190611538565b6111a3565b6040516102a89190611426565b60405180910390f35b600180546102be906115a7565b80601f01602080910402602001604051908101604052809291908181526020018280546102ea906115a7565b80156103375780601f1061030c57610100808354040283529160200191610337565b820191906000526020600020905b81548152906001019060200180831161031a57829003601f168201915b505050505081565b600081600560003373ffffffffffffffffffffffffffffffffffffffff1673ffffffffffffffffffffffffffffffffffffffff16815260200190815260200160002060008573ffffffffffffffffffffffffffffffffffffffff1673ffffffffffffffffffffffffffffffffffffffff168152602001908152602001600020819055508273ffffffffffffffffffffffffffffffffffffffff163373ffffffffffffffffffffffffffffffffffffffff167f8c5be1e5ebec7d5bd14f71427d1e84f3dd0314c0f7b2291e5b200ac8c7c3b9258460405161041f9190611426565b60405180910390a36001905092915050565b60008054905090565b60008073ffffffffffffffffffffffffffffffffffffffff168373ffffffffffffffffffffffffffffffffffffffff16036104aa576040517f08c379a00000000000000000000000000000000000000000000000000000000081526004016104a190611624565b60405180910390fd5b600460008573ffffffffffffffffffffffffffffffffffffffff1673ffffffffffffffffffffffffffffffffffffffff1681526020019081526020016000205482111561052c576040517f08c379a000000000000000000000000000000000000000000000000000000000815260040161052390611690565b60405180910390fd5b600560008573ffffffffffffffffffffffffffffffffffffffff1673ffffffffffffffffffffffffffffffffffffffff16815260200190815260200160002060003373ffffffffffffffffffffffffffffffffffffffff1673ffffffffffffffffffffffffffffffffffffffff168152602001908152602001600020548211156105eb576040517f08c379a00000000000000000000000000000000000000000000000000000000081526004016105e2906116fc565b60405180910390fd5b61063d82600460008773ffffffffffffffffffffffffffffffffffffffff1673ffffffffffffffffffffffffffffffffffffffff1681526020019081526020016000205461122a90919063ffffffff16565b600460008673ffffffffffffffffffffffffffffffffffffffff1673ffffffffffffffffffffffffffffffffffffffff168152602001908152602001600020819055506106d282600460008673ffffffffffffffffffffffffffffffffffffffff1673ffffffffffffffffffffffffffffffffffffffff1681526020019081526020016000205461124090919063ffffffff16565b600460008573ffffffffffffffffffffffffffffffffffffffff1673ffffffffffffffffffffffffffffffffffffffff168152602001908152602001600020819055506107a482600560008773ffffffffffffffffffffffffffffffffffffffff1673ffffffffffffffffffffffffffffffffffffffff16815260200190815260200160002060003373ffffffffffffffffffffffffffffffffffffffff1673ffffffffffffffffffffffffffffffffffffffff1681526020019081526020016000205461122a90919063ffffffff16565b600560008673ffffffffffffffffffffffffffffffffffffffff1673ffffffffffffffffffffffffffffffffffffffff16815260200190815260200160002060003373ffffffffffffffffffffffffffffffffffffffff1673ffffffffffffffffffffffffffffffffffffffff168152602001908152602001600020819055508273ffffffffffffffffffffffffffffffffffffffff168473ffffffffffffffffffffffffffffffffffffffff167fddf252ad1be2c89b69c2b068fc378daa952ba7f163c4a11628f55a4df523b3ef846040516108819190611426565b60405180910390a3600190509392505050565b6000600260009054906101000a900460ff16600a6108b2919061187e565b620f42406108c091906118c9565b831115610902576040517f08c379a00000000000000000000000000000000000000000000000000000000081526004016108f99061197d565b60405180910390fd5b600073ffffffffffffffffffffffffffffffffffffffff168273ffffffffffffffffffffffffffffffffffffffff1603610971576040517f08c379a000000000000000000000000000000000000000000000000000000000815260040161096890611a0f565b60405180910390fd5b6109c383600460008573ffffffffffffffffffffffffffffffffffffffff1673ffffffffffffffffffffffffffffffffffffffff1681526020019081526020016000205461124090919063ffffffff16565b600460008473ffffffffffffffffffffffffffffffffffffffff1673ffffffffffffffffffffffffffffffffffffffff16815260200190815260200160002081905550610a1b8360005461124090919063ffffffff16565b6000819055508173ffffffffffffffffffffffffffffffffffffffff16600073ffffffffffffffffffffffffffffffffffffffff167fddf252ad1be2c89b69c2b068fc378daa952ba7f163c4a11628f55a4df523b3ef85604051610a7f9190611426565b60405180910390a36001905092915050565b600260009054906101000a900460ff1681565b600080600560003373ffffffffffffffffffffffffffffffffffffffff1673ffffffffffffffffffffffffffffffffffffffff16815260200190815260200160002060008573ffffffffffffffffffffffffffffffffffffffff1673ffffffffffffffffffffffffffffffffffffffff16815260200190815260200160002054905080831115610bb5576000600560003373ffffffffffffffffffffffffffffffffffffffff1673ffffffffffffffffffffffffffffffffffffffff16815260200190815260200160002060008673ffffffffffffffffffffffffffffffffffffffff1673ffffffffffffffffffffffffffffffffffffffff16815260200190815260200160002081905550610c49565b610bc8838261122a90919063ffffffff16565b600560003373ffffffffffffffffffffffffffffffffffffffff1673ffffffffffffffffffffffffffffffffffffffff16815260200190815260200160002060008673ffffffffffffffffffffffffffffffffffffffff1673ffffffffffffffffffffffffffffffffffffffff168152602001908152602001600020819055505b8373ffffffffffffffffffffffffffffffffffffffff163373ffffffffffffffffffffffffffffffffffffffff167f8c5be1e5ebec7d5bd14f71427d1e84f3dd0314c0f7b2291e5b200ac8c7c3b925600560003373ffffffffffffffffffffffffffffffffffffffff1673ffffffffffffffffffffffffffffffffffffffff16815260200190815260200160002060008873ffffffffffffffffffffffffffffffffffffffff1673ffffffffffffffffffffffffffffffffffffffff16815260200190815260200160002054604051610d229190611426565b60405180910390a3600191505092915050565b6000600460008373ffffffffffffffffffffffffffffffffffffffff1673ffffffffffffffffffffffffffffffffffffffff168152602001908152602001600020549050919050565b60038054610d8b906115a7565b80601f0160208091040260200160405190810160405280929190818152602001828054610db7906115a7565b8015610e045780601f10610dd957610100808354040283529160200191610e04565b820191906000526020600020905b815481529060010190602001808311610de757829003601f168201915b505050505081565b6000610e6082600460003373ffffffffffffffffffffffffffffffffffffffff1673ffffffffffffffffffffffffffffffffffffffff1681526020019081526020016000205461122a90919063ffffffff16565b600460003373ffffffffffffffffffffffffffffffffffffffff1673ffffffffffffffffffffffffffffffffffffffff16815260200190815260200160002081905550610ef582600460008673ffffffffffffffffffffffffffffffffffffffff1673ffffffffffffffffffffffffffffffffffffffff1681526020019081526020016000205461124090919063ffffffff16565b600460008573ffffffffffffffffffffffffffffffffffffffff1673ffffffffffffffffffffffffffffffffffffffff168152602001908152602001600020819055508273ffffffffffffffffffffffffffffffffffffffff163373ffffffffffffffffffffffffffffffffffffffff167fddf252ad1be2c89b69c2b068fc378daa952ba7f163c4a11628f55a4df523b3ef84604051610f959190611426565b60405180910390a36001905092915050565b600061103882600560003373ffffffffffffffffffffffffffffffffffffffff1673ffffffffffffffffffffffffffffffffffffffff16815260200190815260200160002060008673ffffffffffffffffffffffffffffffffffffffff1673ffffffffffffffffffffffffffffffffffffffff1681526020019081526020016000205461124090919063ffffffff16565b600560003373ffffffffffffffffffffffffffffffffffffffff1673ffffffffffffffffffffffffffffffffffffffff16815260200190815260200160002060008573ffffffffffffffffffffffffffffffffffffffff1673ffffffffffffffffffffffffffffffffffffffff168152602001908152602001600020819055508273ffffffffffffffffffffffffffffffffffffffff163373ffffffffffffffffffffffffffffffffffffffff167f8c5be1e5ebec7d5bd14f71427d1e84f3dd0314c0f7b2291e5b200ac8c7c3b925600560003373ffffffffffffffffffffffffffffffffffffffff1673ffffffffffffffffffffffffffffffffffffffff16815260200190815260200160002060008773ffffffffffffffffffffffffffffffffffffffff1673ffffffffffffffffffffffffffffffffffffffff168152602001908152602001600020546040516111919190611426565b60405180910390a36001905092915050565b6000600560008473ffffffffffffffffffffffffffffffffffffffff1673ffffffffffffffffffffffffffffffffffffffff16815260200190815260200160002060008373ffffffffffffffffffffffffffffffffffffffff1673ffffffffffffffffffffffffffffffffffffffff16815260200190815260200160002054905092915050565b600081836112389190611a2f565b905092915050565b6000818361124e9190611a63565b905092915050565b600081519050919050565b600082825260208201905092915050565b60005b83811015611290578082015181840152602081019050611275565b60008484015250505050565b6000601f19601f8301169050919050565b60006112b882611256565b6112c28185611261565b93506112d2818560208601611272565b6112db8161129c565b840191505092915050565b6000602082019050818103600083015261130081846112ad565b905092915050565b600080fd5b600073ffffffffffffffffffffffffffffffffffffffff82169050919050565b60006113388261130d565b9050919050565b6113488161132d565b811461135357600080fd5b50565b6000813590506113658161133f565b92915050565b6000819050919050565b61137e8161136b565b811461138957600080fd5b50565b60008135905061139b81611375565b92915050565b600080604083850312156113b8576113b7611308565b5b60006113c685828601611356565b92505060206113d78582860161138c565b9150509250929050565b60008115159050919050565b6113f6816113e1565b82525050565b600060208201905061141160008301846113ed565b92915050565b6114208161136b565b82525050565b600060208201905061143b6000830184611417565b92915050565b60008060006060848603121561145a57611459611308565b5b600061146886828701611356565b935050602061147986828701611356565b925050604061148a8682870161138c565b9150509250925092565b600080604083850312156114ab576114aa611308565b5b60006114b98582860161138c565b92505060206114ca85828601611356565b9150509250929050565b600060ff82169050919050565b6114ea816114d4565b82525050565b600060208201905061150560008301846114e1565b92915050565b60006020828403121561152157611520611308565b5b600061152f84828501611356565b91505092915050565b6000806040838503121561154f5761154e611308565b5b600061155d85828601611356565b925050602061156e85828601611356565b9150509250929050565b7f4e487b7100000000000000000000000000000000000000000000000000000000600052602260045260246000fd5b600060028204905060018216806115bf57607f821691505b6020821081036115d2576115d1611578565b5b50919050565b7f496e76616c696420616464726573730000000000000000000000000000000000600082015250565b600061160e600f83611261565b9150611619826115d8565b602082019050919050565b6000602082019050818103600083015261163d81611601565b9050919050565b7f496e73756666696369656e7420746f6b656e73207472616e7366657261626c65600082015250565b600061167a602083611261565b915061168582611644565b602082019050919050565b600060208201905081810360008301526116a98161166d565b9050919050565b7f496e73756666696369656e7420746f6b656e7320616c6c6f7761626c65000000600082015250565b60006116e6601d83611261565b91506116f1826116b0565b602082019050919050565b60006020820190508181036000830152611715816116d9565b9050919050565b7f4e487b7100000000000000000000000000000000000000000000000000000000600052601160045260246000fd5b60008160011c9050919050565b6000808291508390505b60018511156117a25780860481111561177e5761177d61171c565b5b600185161561178d5780820291505b808102905061179b8561174b565b9450611762565b94509492505050565b6000826117bb5760019050611877565b816117c95760009050611877565b81600181146117df57600281146117e957611818565b6001915050611877565b60ff8411156117fb576117fa61171c565b5b8360020a9150848211156118125761181161171c565b5b50611877565b5060208310610133831016604e8410600b841016171561184d5782820a9050838111156118485761184761171c565b5b611877565b61185a8484846001611758565b925090508184048111156118715761187061171c565b5b81810290505b9392505050565b60006118898261136b565b9150611894836114d4565b92506118c17fffffffffffffffffffffffffffffffffffffffffffffffffffffffffffffffff84846117ab565b905092915050565b60006118d48261136b565b91506118df8361136b565b92508282026118ed8161136b565b915082820484148315176119045761190361171c565b5b5092915050565b7f416d6f756e742073686f756c64206e6f74206578636565642031206d696c6c6960008201527f6f6e000000000000000000000000000000000000000000000000000000000000602082015250565b6000611967602283611261565b91506119728261190b565b604082019050919050565b600060208201905081810360008301526119968161195a565b9050919050565b7f526563697069656e7420616464726573732063616e206e6f7420626520656d7060008201527f7479000000000000000000000000000000000000000000000000000000000000602082015250565b60006119f9602283611261565b9150611a048261199d565b604082019050919050565b60006020820190508181036000830152611a28816119ec565b9050919050565b6000611a3a8261136b565b9150611a458361136b565b9250828203905081811115611a5d57611a5c61171c565b5b92915050565b6000611a6e8261136b565b9150611a798361136b565b9250828201905080821115611a9157611a9061171c565b5b9291505056fea2646970667358221220c79a5c7414cf0bc900498295cdb6bac95a44b7c5b1129cc33855f40ef539eb1864736f6c63430008130033",
  "immutableReferences": {},
  "source": "// SPDX-License-Identifier: MIT\npragma solidity 0.8.19;\n\nimport \"@openzeppelin/contracts/utils/math/SafeMath.sol\";\n\n/*\n POLY token faucet is only used on testnet for testing purposes\n !!!! NOT INTENDED TO BE USED ON MAINNET !!!\n*/\n\ncontract PolyTokenFaucet {\n    using SafeMath for uint256;\n    uint256 totalSupply_;\n    string public name = \"Polymath Network\";\n    uint8 public decimals;\n    string public symbol = \"POLY\";\n\n    mapping(address => uint256) balances;\n    mapping(address => mapping(address => uint256)) allowed;\n\n    event Transfer(address indexed from, address indexed to, uint256 value);\n    event Approval(address indexed owner, address indexed spender, uint256 value);\n\n    constructor() {\n        decimals = 18;\n        totalSupply_ = 1000000 * uint256(10) ** decimals;\n        balances[msg.sender] = totalSupply_;\n        emit Transfer(address(0), msg.sender, totalSupply_);\n    }\n\n    /* Token faucet - Not part of the ERC20 standard */\n    function getTokens(uint256 _amount, address _recipient) public returns(bool) {\n        require(_amount <= 1000000 * uint256(10) ** decimals, \"Amount should not exceed 1 million\");\n        require(_recipient != address(0), \"Recipient address can not be empty\");\n        balances[_recipient] = balances[_recipient].add(_amount);\n        totalSupply_ = totalSupply_.add(_amount);\n        emit Transfer(address(0), _recipient, _amount);\n        return true;\n    }\n\n    /**\n     * @notice Sends `_value` tokens to `_to` from `msg.sender`\n     * @param _to The address of the recipient\n     * @param _value The amount of token to be transferred\n     * @return Whether the transfer was successful or not\n     */\n    function transfer(address _to, uint256 _value) public returns(bool) {\n        balances[msg.sender] = balances[msg.sender].sub(_value);\n        balances[_to] = balances[_to].add(_value);\n        emit Transfer(msg.sender, _to, _value);\n        return true;\n    }\n\n    /**\n     * @notice sends `_value` tokens to `_to` from `_from` with the condition it is approved by `_from`\n     * @param _from The address of the sender\n     * @param _to The address of the recipient\n     * @param _value The amount of token to be transferred\n     * @return Whether the transfer was successful or not\n     */\n    function transferFrom(address _from, address _to, uint256 _value) public returns(bool) {\n        require(_to != address(0), \"Invalid address\");\n        require(_value <= balances[_from], \"Insufficient tokens transferable\");\n        require(_value <= allowed[_from][msg.sender], \"Insufficient tokens allowable\");\n\n        balances[_from] = balances[_from].sub(_value);\n        balances[_to] = balances[_to].add(_value);\n        allowed[_from][msg.sender] = allowed[_from][msg.sender].sub(_value);\n        emit Transfer(_from, _to, _value);\n        return true;\n    }\n\n    /**\n     * @notice Returns the balance of a token holder\n     * @param _owner The address from which the balance will be retrieved\n     * @return balance\n     */\n    function balanceOf(address _owner) public view returns(uint256 balance) {\n        return balances[_owner];\n    }\n\n    /**\n     * @notice Used by `msg.sender` to approve `_spender` to spend `_value` tokens\n     * @param _spender The address of the account able to transfer the tokens\n     * @param _value The amount of tokens to be approved for transfer\n     * @return Whether the approval was successful or not\n     */\n    function approve(address _spender, uint256 _value) public returns(bool) {\n        allowed[msg.sender][_spender] = _value;\n        emit Approval(msg.sender, _spender, _value);\n        return true;\n    }\n\n    /**\n     * @param _owner The address of the account owning tokens\n     * @param _spender The address of the account able to transfer the tokens\n     * @return remaining Amount of remaining tokens allowed to be spent\n     */\n    function allowance(address _owner, address _spender) public view returns(uint256 remaining) {\n        return allowed[_owner][_spender];\n    }\n\n    function totalSupply() public view returns(uint256) {\n        return totalSupply_;\n    }\n\n    /**\n     * @dev Increases the amount of tokens that an owner allowed to a spender.\n     * approve should be called when allowed[_spender] == 0. To increment\n     * allowed value, it is better to use this function to avoid 2 calls (and wait until\n     * the first transaction is mined)\n     * From MonolithDAO Token.sol\n     * @param _spender The address which will spend the funds.\n     * @param _addedValue The amount of tokens to increase the allowance by.\n     */\n    function increaseApproval(address _spender, uint _addedValue) public returns(bool) {\n        allowed[msg.sender][_spender] = (allowed[msg.sender][_spender].add(_addedValue));\n        emit Approval(msg.sender, _spender, allowed[msg.sender][_spender]);\n        return true;\n    }\n\n    /**\n    * @dev Decrease the amount of tokens that an owner allowed to a spender.\n    *\n    * approve should be called when allowed[_spender] == 0. To decrement\n    * allowed value, it is better to use this function to avoid 2 calls (and wait until\n    * the first transaction is mined)\n    * From MonolithDAO Token.sol\n    * @param _spender The address which will spend the funds.\n    * @param _subtractedValue The amount of tokens to decrease the allowance by.\n    */\n    function decreaseApproval(address _spender, uint _subtractedValue) public returns(bool) {\n        uint oldValue = allowed[msg.sender][_spender];\n        if (_subtractedValue > oldValue) {\n            allowed[msg.sender][_spender] = 0;\n        } else {\n            allowed[msg.sender][_spender] = oldValue.sub(_subtractedValue);\n        }\n        emit Approval(msg.sender, _spender, allowed[msg.sender][_spender]);\n        return true;\n    }\n\n}\n",
  "sourcePath": "/Users/hanbin/opusm/st-mvp/contracts/mocks/PolyTokenFaucet.sol",
  "compiler": {
    "name": "solc",
    "version": "0.8.19+commit.7dd6d404.Emscripten.clang"
  },
  "schemaVersion": "3.4.10",
  "updatedAt": "2023-07-24T08:15:11.966Z",
  "devdoc": {
    "kind": "dev",
    "methods": {
      "allowance(address,address)": {
        "params": {
          "_owner": "The address of the account owning tokens",
          "_spender": "The address of the account able to transfer the tokens"
        },
        "returns": {
          "remaining": "Amount of remaining tokens allowed to be spent"
        }
      },
      "approve(address,uint256)": {
        "params": {
          "_spender": "The address of the account able to transfer the tokens",
          "_value": "The amount of tokens to be approved for transfer"
        },
        "returns": {
          "_0": "Whether the approval was successful or not"
        }
      },
      "balanceOf(address)": {
        "params": {
          "_owner": "The address from which the balance will be retrieved"
        },
        "returns": {
          "balance": "balance"
        }
      },
      "decreaseApproval(address,uint256)": {
        "details": "Decrease the amount of tokens that an owner allowed to a spender. approve should be called when allowed[_spender] == 0. To decrement allowed value, it is better to use this function to avoid 2 calls (and wait until the first transaction is mined) From MonolithDAO Token.sol",
        "params": {
          "_spender": "The address which will spend the funds.",
          "_subtractedValue": "The amount of tokens to decrease the allowance by."
        }
      },
      "increaseApproval(address,uint256)": {
        "details": "Increases the amount of tokens that an owner allowed to a spender. approve should be called when allowed[_spender] == 0. To increment allowed value, it is better to use this function to avoid 2 calls (and wait until the first transaction is mined) From MonolithDAO Token.sol",
        "params": {
          "_addedValue": "The amount of tokens to increase the allowance by.",
          "_spender": "The address which will spend the funds."
        }
      },
      "transfer(address,uint256)": {
        "params": {
          "_to": "The address of the recipient",
          "_value": "The amount of token to be transferred"
        },
        "returns": {
          "_0": "Whether the transfer was successful or not"
        }
      },
      "transferFrom(address,address,uint256)": {
        "params": {
          "_from": "The address of the sender",
          "_to": "The address of the recipient",
          "_value": "The amount of token to be transferred"
        },
        "returns": {
          "_0": "Whether the transfer was successful or not"
        }
      }
    },
    "version": 1
  },
  "userdoc": {
    "kind": "user",
    "methods": {
      "approve(address,uint256)": {
        "notice": "Used by `msg.sender` to approve `_spender` to spend `_value` tokens"
      },
      "balanceOf(address)": {
        "notice": "Returns the balance of a token holder"
      },
      "transfer(address,uint256)": {
        "notice": "Sends `_value` tokens to `_to` from `msg.sender`"
      },
      "transferFrom(address,address,uint256)": {
        "notice": "sends `_value` tokens to `_to` from `_from` with the condition it is approved by `_from`"
      }
    },
    "version": 1
  }
}