{
  "contractName": "PolymathRegistry",
  "abi": [
    {
      "anonymous": false,
      "inputs": [
        {
          "indexed": false,
          "internalType": "string",
          "name": "_nameKey",
          "type": "string"
        },
        {
          "indexed": true,
          "internalType": "address",
          "name": "_oldAddress",
          "type": "address"
        },
        {
          "indexed": true,
          "internalType": "address",
          "name": "_newAddress",
          "type": "address"
        }
      ],
      "name": "ChangeAddress",
      "type": "event"
    },
    {
      "anonymous": false,
      "inputs": [
        {
          "indexed": true,
          "internalType": "address",
          "name": "previousOwner",
          "type": "address"
        },
        {
          "indexed": true,
          "internalType": "address",
          "name": "newOwner",
          "type": "address"
        }
      ],
      "name": "OwnershipTransferred",
      "type": "event"
    },
    {
      "inputs": [],
      "name": "owner",
      "outputs": [
        {
          "internalType": "address",
          "name": "",
          "type": "address"
        }
      ],
      "stateMutability": "view",
      "type": "function"
    },
    {
      "inputs": [
        {
          "internalType": "address",
          "name": "_tokenContract",
          "type": "address"
        }
      ],
      "name": "reclaimERC20",
      "outputs": [],
      "stateMutability": "nonpayable",
      "type": "function"
    },
    {
      "inputs": [],
      "name": "renounceOwnership",
      "outputs": [],
      "stateMutability": "nonpayable",
      "type": "function"
    },
    {
      "inputs": [
        {
          "internalType": "bytes32",
          "name": "",
          "type": "bytes32"
        }
      ],
      "name": "storedAddresses",
      "outputs": [
        {
          "internalType": "address",
          "name": "",
          "type": "address"
        }
      ],
      "stateMutability": "view",
      "type": "function"
    },
    {
      "inputs": [
        {
          "internalType": "address",
          "name": "newOwner",
          "type": "address"
        }
      ],
      "name": "transferOwnership",
      "outputs": [],
      "stateMutability": "nonpayable",
      "type": "function"
    },
    {
      "inputs": [
        {
          "internalType": "string",
          "name": "_nameKey",
          "type": "string"
        }
      ],
      "name": "getAddress",
      "outputs": [
        {
          "internalType": "address",
          "name": "",
          "type": "address"
        }
      ],
      "stateMutability": "view",
      "type": "function"
    },
    {
      "inputs": [
        {
          "internalType": "string",
          "name": "_nameKey",
          "type": "string"
        },
        {
          "internalType": "address",
          "name": "_newAddress",
          "type": "address"
        }
      ],
      "name": "changeAddress",
      "outputs": [],
      "stateMutability": "nonpayable",
      "type": "function"
    }
  ],
  "bytecode": "0x608060405234801561001057600080fd5b5061002d61002261003260201b60201c565b61003a60201b60201c565b6100fe565b600033905090565b60008060009054906101000a900473ffffffffffffffffffffffffffffffffffffffff169050816000806101000a81548173ffffffffffffffffffffffffffffffffffffffff021916908373ffffffffffffffffffffffffffffffffffffffff1602179055508173ffffffffffffffffffffffffffffffffffffffff168173ffffffffffffffffffffffffffffffffffffffff167f8be0079c531659141344cd1fd0a4f28419497f9722a3daafe3b4186f6b6457e060405160405180910390a35050565b610de78061010d6000396000f3fe608060405234801561001057600080fd5b506004361061007d5760003560e01c80638da5cb5b1161005b5780638da5cb5b146100d8578063a7dbb402146100f6578063bf40fac114610112578063f2fde38b146101425761007d565b80636c47e36f14610082578063715018a6146100b25780638905fd4f146100bc575b600080fd5b61009c600480360381019061009791906107b0565b61015e565b6040516100a9919061081e565b60405180910390f35b6100ba610191565b005b6100d660048036038101906100d19190610865565b6101a5565b005b6100e0610368565b6040516100ed919061081e565b60405180910390f35b610110600480360381019061010b91906108f7565b610391565b005b61012c60048036038101906101279190610957565b6104a7565b604051610139919061081e565b60405180910390f35b61015c60048036038101906101579190610865565b6105a3565b005b60016020528060005260406000206000915054906101000a900473ffffffffffffffffffffffffffffffffffffffff1681565b610199610626565b6101a360006106a4565b565b6101ad610626565b600073ffffffffffffffffffffffffffffffffffffffff168173ffffffffffffffffffffffffffffffffffffffff160361021c576040517f08c379a000000000000000000000000000000000000000000000000000000000815260040161021390610a01565b60405180910390fd5b600081905060008173ffffffffffffffffffffffffffffffffffffffff166370a08231306040518263ffffffff1660e01b815260040161025c919061081e565b602060405180830381865afa158015610279573d6000803e3d6000fd5b505050506040513d601f19601f8201168201806040525081019061029d9190610a57565b90508173ffffffffffffffffffffffffffffffffffffffff1663a9059cbb6102c3610368565b836040518363ffffffff1660e01b81526004016102e1929190610a93565b6020604051808303816000875af1158015610300573d6000803e3d6000fd5b505050506040513d601f19601f820116820180604052508101906103249190610af4565b610363576040517f08c379a000000000000000000000000000000000000000000000000000000000815260040161035a90610b6d565b60405180910390fd5b505050565b60008060009054906101000a900473ffffffffffffffffffffffffffffffffffffffff16905090565b610399610626565b600083836040516103ab929190610bcc565b604051809103902090508173ffffffffffffffffffffffffffffffffffffffff166001600083815260200190815260200160002060009054906101000a900473ffffffffffffffffffffffffffffffffffffffff1673ffffffffffffffffffffffffffffffffffffffff167f685cb9667751e0a0d68e0ab5e737963ad9d2c743b0191f9aedfe037e723db0ad8686604051610447929190610c23565b60405180910390a3816001600083815260200190815260200160002060006101000a81548173ffffffffffffffffffffffffffffffffffffffff021916908373ffffffffffffffffffffffffffffffffffffffff16021790555050505050565b60008083836040516104ba929190610bcc565b60405180910390209050600073ffffffffffffffffffffffffffffffffffffffff166001600083815260200190815260200160002060009054906101000a900473ffffffffffffffffffffffffffffffffffffffff1673ffffffffffffffffffffffffffffffffffffffff1603610566576040517f08c379a000000000000000000000000000000000000000000000000000000000815260040161055d90610c93565b60405180910390fd5b6001600082815260200190815260200160002060009054906101000a900473ffffffffffffffffffffffffffffffffffffffff1691505092915050565b6105ab610626565b600073ffffffffffffffffffffffffffffffffffffffff168173ffffffffffffffffffffffffffffffffffffffff160361061a576040517f08c379a000000000000000000000000000000000000000000000000000000000815260040161061190610d25565b60405180910390fd5b610623816106a4565b50565b61062e610768565b73ffffffffffffffffffffffffffffffffffffffff1661064c610368565b73ffffffffffffffffffffffffffffffffffffffff16146106a2576040517f08c379a000000000000000000000000000000000000000000000000000000000815260040161069990610d91565b60405180910390fd5b565b60008060009054906101000a900473ffffffffffffffffffffffffffffffffffffffff169050816000806101000a81548173ffffffffffffffffffffffffffffffffffffffff021916908373ffffffffffffffffffffffffffffffffffffffff1602179055508173ffffffffffffffffffffffffffffffffffffffff168173ffffffffffffffffffffffffffffffffffffffff167f8be0079c531659141344cd1fd0a4f28419497f9722a3daafe3b4186f6b6457e060405160405180910390a35050565b600033905090565b600080fd5b600080fd5b6000819050919050565b61078d8161077a565b811461079857600080fd5b50565b6000813590506107aa81610784565b92915050565b6000602082840312156107c6576107c5610770565b5b60006107d48482850161079b565b91505092915050565b600073ffffffffffffffffffffffffffffffffffffffff82169050919050565b6000610808826107dd565b9050919050565b610818816107fd565b82525050565b6000602082019050610833600083018461080f565b92915050565b610842816107fd565b811461084d57600080fd5b50565b60008135905061085f81610839565b92915050565b60006020828403121561087b5761087a610770565b5b600061088984828501610850565b91505092915050565b600080fd5b600080fd5b600080fd5b60008083601f8401126108b7576108b6610892565b5b8235905067ffffffffffffffff8111156108d4576108d3610897565b5b6020830191508360018202830111156108f0576108ef61089c565b5b9250929050565b6000806000604084860312156109105761090f610770565b5b600084013567ffffffffffffffff81111561092e5761092d610775565b5b61093a868287016108a1565b9350935050602061094d86828701610850565b9150509250925092565b6000806020838503121561096e5761096d610770565b5b600083013567ffffffffffffffff81111561098c5761098b610775565b5b610998858286016108a1565b92509250509250929050565b600082825260208201905092915050565b7f496e76616c696420616464726573730000000000000000000000000000000000600082015250565b60006109eb600f836109a4565b91506109f6826109b5565b602082019050919050565b60006020820190508181036000830152610a1a816109de565b9050919050565b6000819050919050565b610a3481610a21565b8114610a3f57600080fd5b50565b600081519050610a5181610a2b565b92915050565b600060208284031215610a6d57610a6c610770565b5b6000610a7b84828501610a42565b91505092915050565b610a8d81610a21565b82525050565b6000604082019050610aa8600083018561080f565b610ab56020830184610a84565b9392505050565b60008115159050919050565b610ad181610abc565b8114610adc57600080fd5b50565b600081519050610aee81610ac8565b92915050565b600060208284031215610b0a57610b09610770565b5b6000610b1884828501610adf565b91505092915050565b7f5472616e73666572206661696c65640000000000000000000000000000000000600082015250565b6000610b57600f836109a4565b9150610b6282610b21565b602082019050919050565b60006020820190508181036000830152610b8681610b4a565b9050919050565b600081905092915050565b82818337600083830152505050565b6000610bb38385610b8d565b9350610bc0838584610b98565b82840190509392505050565b6000610bd9828486610ba7565b91508190509392505050565b6000601f19601f8301169050919050565b6000610c0283856109a4565b9350610c0f838584610b98565b610c1883610be5565b840190509392505050565b60006020820190508181036000830152610c3e818486610bf6565b90509392505050565b7f496e76616c6964206b6579000000000000000000000000000000000000000000600082015250565b6000610c7d600b836109a4565b9150610c8882610c47565b602082019050919050565b60006020820190508181036000830152610cac81610c70565b9050919050565b7f4f776e61626c653a206e6577206f776e657220697320746865207a65726f206160008201527f6464726573730000000000000000000000000000000000000000000000000000602082015250565b6000610d0f6026836109a4565b9150610d1a82610cb3565b604082019050919050565b60006020820190508181036000830152610d3e81610d02565b9050919050565b7f4f776e61626c653a2063616c6c6572206973206e6f7420746865206f776e6572600082015250565b6000610d7b6020836109a4565b9150610d8682610d45565b602082019050919050565b60006020820190508181036000830152610daa81610d6e565b905091905056fea26469706673582212200073e8d4213c1c110a5f477edf93b210fb91cf1d5a7d3a81588e202362b9164964736f6c63430008130033",
  "immutableReferences": {},
  "source": "// SPDX-License-Identifier: MIT\npragma solidity 0.8.19;\n\nimport \"./ReclaimTokens.sol\";\nimport \"./interfaces/IPolymathRegistry.sol\";\n\n/**\n * @title Core functionality for registry upgradability\n */\ncontract PolymathRegistry is ReclaimTokens, IPolymathRegistry {\n    mapping(bytes32 => address) public storedAddresses;\n\n    /**\n     * @notice Gets the contract address\n     * @param _nameKey is the key for the contract address mapping\n     * @return address\n     */\n    function getAddress(string calldata _nameKey) external view returns(address) {\n        bytes32 key = keccak256(bytes(_nameKey));\n        require(storedAddresses[key] != address(0), \"Invalid key\");\n        return storedAddresses[key];\n    }\n\n    /**\n     * @notice Changes the contract address\n     * @param _nameKey is the key for the contract address mapping\n     * @param _newAddress is the new contract address\n     */\n    function changeAddress(string calldata _nameKey, address _newAddress) external onlyOwner {\n        bytes32 key = keccak256(bytes(_nameKey));\n        emit ChangeAddress(_nameKey, storedAddresses[key], _newAddress);\n        storedAddresses[key] = _newAddress;\n    }\n\n}\n",
  "sourcePath": "/Users/hanbin/opusm/st-mvp/contracts/PolymathRegistry.sol",
  "compiler": {
    "name": "solc",
    "version": "0.8.19+commit.7dd6d404.Emscripten.clang"
  },
  "schemaVersion": "3.4.10",
  "updatedAt": "2023-07-24T08:15:11.939Z",
  "devdoc": {
    "kind": "dev",
    "methods": {
      "changeAddress(string,address)": {
        "params": {
          "_nameKey": "is the key for the contract address mapping",
          "_newAddress": "is the new contract address"
        }
      },
      "getAddress(string)": {
        "params": {
          "_nameKey": "is the key for the contract address mapping"
        },
        "returns": {
          "_0": "address"
        }
      },
      "owner()": {
        "details": "Returns the address of the current owner."
      },
      "reclaimERC20(address)": {
        "params": {
          "_tokenContract": "The address of the token contract"
        }
      },
      "renounceOwnership()": {
        "details": "Leaves the contract without owner. It will not be possible to call `onlyOwner` functions. Can only be called by the current owner. NOTE: Renouncing ownership will leave the contract without an owner, thereby disabling any functionality that is only available to the owner."
      },
      "transferOwnership(address)": {
        "details": "Transfers ownership of the contract to a new account (`newOwner`). Can only be called by the current owner."
      }
    },
    "title": "Core functionality for registry upgradability",
    "version": 1
  },
  "userdoc": {
    "kind": "user",
    "methods": {
      "changeAddress(string,address)": {
        "notice": "Changes the contract address"
      },
      "getAddress(string)": {
        "notice": "Gets the contract address"
      },
      "reclaimERC20(address)": {
        "notice": "Reclaim all ERC20Basic compatible tokens"
      }
    },
    "version": 1
  }
}