{
  "contractName": "ReclaimTokens",
  "abi": [
    {
      "anonymous": false,
      "inputs": [
        {
          "indexed": true,
          "internalType": "address",
          "name": "previousOwner",
          "type": "address"
        },
        {
          "indexed": true,
          "internalType": "address",
          "name": "newOwner",
          "type": "address"
        }
      ],
      "name": "OwnershipTransferred",
      "type": "event"
    },
    {
      "inputs": [],
      "name": "owner",
      "outputs": [
        {
          "internalType": "address",
          "name": "",
          "type": "address"
        }
      ],
      "stateMutability": "view",
      "type": "function"
    },
    {
      "inputs": [],
      "name": "renounceOwnership",
      "outputs": [],
      "stateMutability": "nonpayable",
      "type": "function"
    },
    {
      "inputs": [
        {
          "internalType": "address",
          "name": "newOwner",
          "type": "address"
        }
      ],
      "name": "transferOwnership",
      "outputs": [],
      "stateMutability": "nonpayable",
      "type": "function"
    },
    {
      "inputs": [
        {
          "internalType": "address",
          "name": "_tokenContract",
          "type": "address"
        }
      ],
      "name": "reclaimERC20",
      "outputs": [],
      "stateMutability": "nonpayable",
      "type": "function"
    }
  ],
  "bytecode": "0x608060405234801561001057600080fd5b5061002d61002261003260201b60201c565b61003a60201b60201c565b6100fe565b600033905090565b60008060009054906101000a900473ffffffffffffffffffffffffffffffffffffffff169050816000806101000a81548173ffffffffffffffffffffffffffffffffffffffff021916908373ffffffffffffffffffffffffffffffffffffffff1602179055508173ffffffffffffffffffffffffffffffffffffffff168173ffffffffffffffffffffffffffffffffffffffff167f8be0079c531659141344cd1fd0a4f28419497f9722a3daafe3b4186f6b6457e060405160405180910390a35050565b6108558061010d6000396000f3fe608060405234801561001057600080fd5b506004361061004c5760003560e01c8063715018a6146100515780638905fd4f1461005b5780638da5cb5b14610077578063f2fde38b14610095575b600080fd5b6100596100b1565b005b610075600480360381019061007091906104e1565b6100c5565b005b61007f610288565b60405161008c919061051d565b60405180910390f35b6100af60048036038101906100aa91906104e1565b6102b1565b005b6100b9610334565b6100c360006103b2565b565b6100cd610334565b600073ffffffffffffffffffffffffffffffffffffffff168173ffffffffffffffffffffffffffffffffffffffff160361013c576040517f08c379a000000000000000000000000000000000000000000000000000000000815260040161013390610595565b60405180910390fd5b600081905060008173ffffffffffffffffffffffffffffffffffffffff166370a08231306040518263ffffffff1660e01b815260040161017c919061051d565b602060405180830381865afa158015610199573d6000803e3d6000fd5b505050506040513d601f19601f820116820180604052508101906101bd91906105eb565b90508173ffffffffffffffffffffffffffffffffffffffff1663a9059cbb6101e3610288565b836040518363ffffffff1660e01b8152600401610201929190610627565b6020604051808303816000875af1158015610220573d6000803e3d6000fd5b505050506040513d601f19601f820116820180604052508101906102449190610688565b610283576040517f08c379a000000000000000000000000000000000000000000000000000000000815260040161027a90610701565b60405180910390fd5b505050565b60008060009054906101000a900473ffffffffffffffffffffffffffffffffffffffff16905090565b6102b9610334565b600073ffffffffffffffffffffffffffffffffffffffff168173ffffffffffffffffffffffffffffffffffffffff1603610328576040517f08c379a000000000000000000000000000000000000000000000000000000000815260040161031f90610793565b60405180910390fd5b610331816103b2565b50565b61033c610476565b73ffffffffffffffffffffffffffffffffffffffff1661035a610288565b73ffffffffffffffffffffffffffffffffffffffff16146103b0576040517f08c379a00000000000000000000000000000000000000000000000000000000081526004016103a7906107ff565b60405180910390fd5b565b60008060009054906101000a900473ffffffffffffffffffffffffffffffffffffffff169050816000806101000a81548173ffffffffffffffffffffffffffffffffffffffff021916908373ffffffffffffffffffffffffffffffffffffffff1602179055508173ffffffffffffffffffffffffffffffffffffffff168173ffffffffffffffffffffffffffffffffffffffff167f8be0079c531659141344cd1fd0a4f28419497f9722a3daafe3b4186f6b6457e060405160405180910390a35050565b600033905090565b600080fd5b600073ffffffffffffffffffffffffffffffffffffffff82169050919050565b60006104ae82610483565b9050919050565b6104be816104a3565b81146104c957600080fd5b50565b6000813590506104db816104b5565b92915050565b6000602082840312156104f7576104f661047e565b5b6000610505848285016104cc565b91505092915050565b610517816104a3565b82525050565b6000602082019050610532600083018461050e565b92915050565b600082825260208201905092915050565b7f496e76616c696420616464726573730000000000000000000000000000000000600082015250565b600061057f600f83610538565b915061058a82610549565b602082019050919050565b600060208201905081810360008301526105ae81610572565b9050919050565b6000819050919050565b6105c8816105b5565b81146105d357600080fd5b50565b6000815190506105e5816105bf565b92915050565b6000602082840312156106015761060061047e565b5b600061060f848285016105d6565b91505092915050565b610621816105b5565b82525050565b600060408201905061063c600083018561050e565b6106496020830184610618565b9392505050565b60008115159050919050565b61066581610650565b811461067057600080fd5b50565b6000815190506106828161065c565b92915050565b60006020828403121561069e5761069d61047e565b5b60006106ac84828501610673565b91505092915050565b7f5472616e73666572206661696c65640000000000000000000000000000000000600082015250565b60006106eb600f83610538565b91506106f6826106b5565b602082019050919050565b6000602082019050818103600083015261071a816106de565b9050919050565b7f4f776e61626c653a206e6577206f776e657220697320746865207a65726f206160008201527f6464726573730000000000000000000000000000000000000000000000000000602082015250565b600061077d602683610538565b915061078882610721565b604082019050919050565b600060208201905081810360008301526107ac81610770565b9050919050565b7f4f776e61626c653a2063616c6c6572206973206e6f7420746865206f776e6572600082015250565b60006107e9602083610538565b91506107f4826107b3565b602082019050919050565b60006020820190508181036000830152610818816107dc565b905091905056fea26469706673582212201fa5c3c8fa9225deb2f7e134a8b7371b10865a7b6803823c782017c236f4bcb364736f6c63430008130033",
  "immutableReferences": {},
  "source": "// SPDX-License-Identifier: MIT\npragma solidity 0.8.19;\n\nimport \"@openzeppelin/contracts/access/Ownable.sol\";\nimport \"@openzeppelin/contracts/token/ERC20/IERC20.sol\";\n\n/**\n * @title Utility contract to allow owner to retreive any ERC20 sent to the contract\n */\ncontract ReclaimTokens is Ownable {\n    /**\n    * @notice Reclaim all ERC20Basic compatible tokens\n    * @param _tokenContract The address of the token contract\n    */\n    function reclaimERC20(address _tokenContract) external onlyOwner {\n        require(_tokenContract != address(0), \"Invalid address\");\n        IERC20 token = IERC20(_tokenContract);\n        uint256 balance = token.balanceOf(address(this));\n        require(token.transfer(owner(), balance), \"Transfer failed\");\n    }\n}\n",
  "sourcePath": "/Users/hanbin/opusm/st-mvp/contracts/ReclaimTokens.sol",
  "compiler": {
    "name": "solc",
    "version": "0.8.19+commit.7dd6d404.Emscripten.clang"
  },
  "schemaVersion": "3.4.10",
  "updatedAt": "2023-07-24T08:15:11.945Z",
  "devdoc": {
    "kind": "dev",
    "methods": {
      "owner()": {
        "details": "Returns the address of the current owner."
      },
      "reclaimERC20(address)": {
        "params": {
          "_tokenContract": "The address of the token contract"
        }
      },
      "renounceOwnership()": {
        "details": "Leaves the contract without owner. It will not be possible to call `onlyOwner` functions. Can only be called by the current owner. NOTE: Renouncing ownership will leave the contract without an owner, thereby disabling any functionality that is only available to the owner."
      },
      "transferOwnership(address)": {
        "details": "Transfers ownership of the contract to a new account (`newOwner`). Can only be called by the current owner."
      }
    },
    "title": "Utility contract to allow owner to retreive any ERC20 sent to the contract",
    "version": 1
  },
  "userdoc": {
    "kind": "user",
    "methods": {
      "reclaimERC20(address)": {
        "notice": "Reclaim all ERC20Basic compatible tokens"
      }
    },
    "version": 1
  }
}