{
  "contractName": "SecurityTokenStorage",
  "abi": [
    {
      "inputs": [],
      "name": "controller",
      "outputs": [
        {
          "internalType": "address",
          "name": "",
          "type": "address"
        }
      ],
      "stateMutability": "view",
      "type": "function"
    },
    {
      "inputs": [],
      "name": "controllerDisabled",
      "outputs": [
        {
          "internalType": "bool",
          "name": "",
          "type": "bool"
        }
      ],
      "stateMutability": "view",
      "type": "function"
    },
    {
      "inputs": [],
      "name": "currentCheckpointId",
      "outputs": [
        {
          "internalType": "uint256",
          "name": "",
          "type": "uint256"
        }
      ],
      "stateMutability": "view",
      "type": "function"
    },
    {
      "inputs": [],
      "name": "dataStore",
      "outputs": [
        {
          "internalType": "contract IDataStore",
          "name": "",
          "type": "address"
        }
      ],
      "stateMutability": "view",
      "type": "function"
    },
    {
      "inputs": [],
      "name": "decimals",
      "outputs": [
        {
          "internalType": "uint8",
          "name": "",
          "type": "uint8"
        }
      ],
      "stateMutability": "view",
      "type": "function"
    },
    {
      "inputs": [],
      "name": "getterDelegate",
      "outputs": [
        {
          "internalType": "address",
          "name": "",
          "type": "address"
        }
      ],
      "stateMutability": "view",
      "type": "function"
    },
    {
      "inputs": [],
      "name": "granularity",
      "outputs": [
        {
          "internalType": "uint256",
          "name": "",
          "type": "uint256"
        }
      ],
      "stateMutability": "view",
      "type": "function"
    },
    {
      "inputs": [],
      "name": "holderCount",
      "outputs": [
        {
          "internalType": "uint256",
          "name": "",
          "type": "uint256"
        }
      ],
      "stateMutability": "view",
      "type": "function"
    },
    {
      "inputs": [],
      "name": "initialized",
      "outputs": [
        {
          "internalType": "bool",
          "name": "",
          "type": "bool"
        }
      ],
      "stateMutability": "view",
      "type": "function"
    },
    {
      "inputs": [],
      "name": "moduleRegistry",
      "outputs": [
        {
          "internalType": "contract IModuleRegistry",
          "name": "",
          "type": "address"
        }
      ],
      "stateMutability": "view",
      "type": "function"
    },
    {
      "inputs": [],
      "name": "name",
      "outputs": [
        {
          "internalType": "string",
          "name": "",
          "type": "string"
        }
      ],
      "stateMutability": "view",
      "type": "function"
    },
    {
      "inputs": [],
      "name": "polyToken",
      "outputs": [
        {
          "internalType": "contract IERC20",
          "name": "",
          "type": "address"
        }
      ],
      "stateMutability": "view",
      "type": "function"
    },
    {
      "inputs": [],
      "name": "polymathRegistry",
      "outputs": [
        {
          "internalType": "contract IPolymathRegistry",
          "name": "",
          "type": "address"
        }
      ],
      "stateMutability": "view",
      "type": "function"
    },
    {
      "inputs": [],
      "name": "securityTokenRegistry",
      "outputs": [
        {
          "internalType": "contract ISecurityTokenRegistry",
          "name": "",
          "type": "address"
        }
      ],
      "stateMutability": "view",
      "type": "function"
    },
    {
      "inputs": [],
      "name": "symbol",
      "outputs": [
        {
          "internalType": "string",
          "name": "",
          "type": "string"
        }
      ],
      "stateMutability": "view",
      "type": "function"
    },
    {
      "inputs": [],
      "name": "tokenDetails",
      "outputs": [
        {
          "internalType": "string",
          "name": "",
          "type": "string"
        }
      ],
      "stateMutability": "view",
      "type": "function"
    },
    {
      "inputs": [],
      "name": "tokenFactory",
      "outputs": [
        {
          "internalType": "address",
          "name": "",
          "type": "address"
        }
      ],
      "stateMutability": "view",
      "type": "function"
    },
    {
      "inputs": [],
      "name": "transfersFrozen",
      "outputs": [
        {
          "internalType": "bool",
          "name": "",
          "type": "bool"
        }
      ],
      "stateMutability": "view",
      "type": "function"
    }
  ],
  "bytecode": "0x60806040526000600e60006101000a81548160ff0219169083151502179055506001601060006101000a81548160ff02191690831515021790555034801561004657600080fd5b50610a1e806100566000396000f3fe608060405234801561001057600080fd5b50600436106101165760003560e01c806377282b70116100a2578063ce4dbdff11610071578063ce4dbdff146102a1578063d6abe110146102bf578063e45b8134146102dd578063e77772fe146102fb578063f77c47911461031957610116565b806377282b70146102295780637a802c711461024757806395d89b4114610265578063b95459e41461028357610116565b8063313ce567116100e9578063313ce567146101935780635488cc80146101b1578063556f0dc7146101cf578063660d0d67146101ed5780636faa22a51461020b57610116565b806306fdde031461011b578063158ef93e146101395780631aab9a9f146101575780632fb3b99d14610175575b600080fd5b610123610337565b60405161013091906106ff565b60405180910390f35b6101416103c5565b60405161014e919061073c565b60405180910390f35b61015f6103d8565b60405161016c9190610770565b60405180910390f35b61017d6103de565b60405161018a91906107cc565b60405180910390f35b61019b610404565b6040516101a89190610803565b60405180910390f35b6101b9610417565b6040516101c69190610770565b60405180910390f35b6101d761041d565b6040516101e49190610770565b60405180910390f35b6101f5610423565b604051610202919061087d565b60405180910390f35b610213610449565b60405161022091906108b9565b60405180910390f35b61023161046f565b60405161023e91906108f5565b60405180910390f35b61024f610495565b60405161025c919061073c565b60405180910390f35b61026d6104a8565b60405161027a91906106ff565b60405180910390f35b61028b610536565b6040516102989190610931565b60405180910390f35b6102a961055c565b6040516102b6919061096d565b60405180910390f35b6102c7610582565b6040516102d491906106ff565b60405180910390f35b6102e5610610565b6040516102f2919061073c565b60405180910390f35b610303610623565b60405161031091906107cc565b60405180910390f35b610321610649565b60405161032e91906107cc565b60405180910390f35b60028054610344906109b7565b80601f0160208091040260200160405190810160405280929190818152602001828054610370906109b7565b80156103bd5780601f10610392576101008083540402835291602001916103bd565b820191906000526020600020905b8154815290600101906020018083116103a057829003601f168201915b505050505081565b600160149054906101000a900460ff1681565b600f5481565b600960009054906101000a900473ffffffffffffffffffffffffffffffffffffffff1681565b600460009054906101000a900460ff1681565b600c5481565b600b5481565b600a60009054906101000a900473ffffffffffffffffffffffffffffffffffffffff1681565b600860009054906101000a900473ffffffffffffffffffffffffffffffffffffffff1681565b600560009054906101000a900473ffffffffffffffffffffffffffffffffffffffff1681565b600e60009054906101000a900460ff1681565b600380546104b5906109b7565b80601f01602080910402602001604051908101604052809291908181526020018280546104e1906109b7565b801561052e5780601f106105035761010080835404028352916020019161052e565b820191906000526020600020905b81548152906001019060200180831161051157829003601f168201915b505050505081565b600660009054906101000a900473ffffffffffffffffffffffffffffffffffffffff1681565b600760009054906101000a900473ffffffffffffffffffffffffffffffffffffffff1681565b600d805461058f906109b7565b80601f01602080910402602001604051908101604052809291908181526020018280546105bb906109b7565b80156106085780601f106105dd57610100808354040283529160200191610608565b820191906000526020600020905b8154815290600101906020018083116105eb57829003601f168201915b505050505081565b600e60019054906101000a900460ff1681565b600160009054906101000a900473ffffffffffffffffffffffffffffffffffffffff1681565b600460019054906101000a900473ffffffffffffffffffffffffffffffffffffffff1681565b600081519050919050565b600082825260208201905092915050565b60005b838110156106a957808201518184015260208101905061068e565b60008484015250505050565b6000601f19601f8301169050919050565b60006106d18261066f565b6106db818561067a565b93506106eb81856020860161068b565b6106f4816106b5565b840191505092915050565b6000602082019050818103600083015261071981846106c6565b905092915050565b60008115159050919050565b61073681610721565b82525050565b6000602082019050610751600083018461072d565b92915050565b6000819050919050565b61076a81610757565b82525050565b60006020820190506107856000830184610761565b92915050565b600073ffffffffffffffffffffffffffffffffffffffff82169050919050565b60006107b68261078b565b9050919050565b6107c6816107ab565b82525050565b60006020820190506107e160008301846107bd565b92915050565b600060ff82169050919050565b6107fd816107e7565b82525050565b600060208201905061081860008301846107f4565b92915050565b6000819050919050565b600061084361083e6108398461078b565b61081e565b61078b565b9050919050565b600061085582610828565b9050919050565b60006108678261084a565b9050919050565b6108778161085c565b82525050565b6000602082019050610892600083018461086e565b92915050565b60006108a38261084a565b9050919050565b6108b381610898565b82525050565b60006020820190506108ce60008301846108aa565b92915050565b60006108df8261084a565b9050919050565b6108ef816108d4565b82525050565b600060208201905061090a60008301846108e6565b92915050565b600061091b8261084a565b9050919050565b61092b81610910565b82525050565b60006020820190506109466000830184610922565b92915050565b60006109578261084a565b9050919050565b6109678161094c565b82525050565b6000602082019050610982600083018461095e565b92915050565b7f4e487b7100000000000000000000000000000000000000000000000000000000600052602260045260246000fd5b600060028204905060018216806109cf57607f821691505b6020821081036109e2576109e1610988565b5b5091905056fea26469706673582212208adb846e3807a155dc1ca295d2e2e4bf1b7dc440c05e19dc0bb4fee7a4d5d0a664736f6c63430008130033",
  "immutableReferences": {},
  "source": "// SPDX-License-Identifier: MIT\npragma solidity 0.8.19;\n\nimport \"../interfaces/IDataStore.sol\";\nimport \"../interfaces/IModuleRegistry.sol\";\nimport \"../interfaces/IPolymathRegistry.sol\";\nimport \"../interfaces/ISecurityTokenRegistry.sol\";\n\nimport \"@openzeppelin/contracts/token/ERC20/IERC20.sol\";\n\n\ncontract SecurityTokenStorage {\n\n    uint8 internal constant PERMISSION_KEY = 1;\n    uint8 internal constant TRANSFER_KEY = 2;\n    uint8 internal constant MINT_KEY = 3;\n    uint8 internal constant CHECKPOINT_KEY = 4;\n    uint8 internal constant BURN_KEY = 5;\n    uint8 internal constant DATA_KEY = 6;\n    uint8 internal constant WALLET_KEY = 7;\n\n    bytes32 internal constant INVESTORSKEY = 0xdf3a8dd24acdd05addfc6aeffef7574d2de3f844535ec91e8e0f3e45dba96731; //keccak256(abi.encodePacked(\"INVESTORS\"))\n    bytes32 internal constant TREASURY = 0xaae8817359f3dcb67d050f44f3e49f982e0359d90ca4b5f18569926304aaece6; //keccak256(abi.encodePacked(\"TREASURY_WALLET\"))\n    bytes32 internal constant LOCKED = \"LOCKED\";\n    bytes32 internal constant UNLOCKED = \"UNLOCKED\";\n\n    //////////////////////////\n    /// Document datastructure\n    //////////////////////////\n\n    struct Document {\n        bytes32 docHash; // Hash of the document\n        uint256 lastModified; // Timestamp at which document details was last modified\n        string uri; // URI of the document that exist off-chain\n    }\n\n    // Used to hold the semantic version data\n    struct SemanticVersion {\n        uint8 major;\n        uint8 minor;\n        uint8 patch;\n    }\n\n    // Struct for module data\n    struct ModuleData {\n        bytes32 name;\n        address module;\n        address moduleFactory;\n        bool isArchived;\n        uint8[] moduleTypes;\n        uint256[] moduleIndexes;\n        uint256 nameIndex;\n        bytes32 label;\n    }\n\n    // Structures to maintain checkpoints of balances for governance / dividends\n    struct Checkpoint {\n        uint256 checkpointId;\n        uint256 value;\n    }\n\n    //Naming scheme to match Ownable\n    address internal _owner;\n    address public tokenFactory;\n    bool public initialized;\n\n    // ERC20 Details\n    string public name;\n    string public symbol;\n    uint8 public decimals;\n\n    // Address of the controller which is a delegated entity\n    // set by the issuer/owner of the token\n    address public controller;\n\n    IPolymathRegistry public polymathRegistry;\n    IModuleRegistry public moduleRegistry;\n    ISecurityTokenRegistry public securityTokenRegistry;\n    IERC20 public polyToken;\n    address public getterDelegate;\n    // Address of the data store used to store shared data\n    IDataStore public dataStore;\n\n    uint256 public granularity;\n\n    // Value of current checkpoint\n    uint256 public currentCheckpointId;\n\n    // off-chain data\n    string public tokenDetails;\n\n    // Used to permanently halt controller actions\n    bool public controllerDisabled = false;\n\n    // Used to temporarily halt all transactions\n    bool public transfersFrozen;\n\n    // Number of investors with non-zero balance\n    uint256 public holderCount;\n\n    // Variable which tells whether issuance is ON or OFF forever\n    // Implementers need to implement one more function to reset the value of `issuance` variable\n    // to false. That function is not a part of the standard (EIP-1594) as it is depend on the various factors\n    // issuer, followed compliance rules etc. So issuers have the choice how they want to close the issuance.\n    bool internal issuance = true;\n\n    // Array use to store all the document name present in the contracts\n    bytes32[] _docNames;\n\n    // Times at which each checkpoint was created\n    uint256[] checkpointTimes;\n\n    SemanticVersion securityTokenVersion;\n\n    // Records added modules - module list should be order agnostic!\n    mapping(uint8 => address[]) modules;\n\n    // Records information about the module\n    mapping(address => ModuleData) modulesToData;\n\n    // Records added module names - module list should be order agnostic!\n    mapping(bytes32 => address[]) names;\n\n    // Mapping of checkpoints that relate to total supply\n    mapping (uint256 => uint256) checkpointTotalSupply;\n\n    // Map each investor to a series of checkpoints\n    mapping(address => Checkpoint[]) checkpointBalances;\n\n    // mapping to store the documents details in the document\n    mapping(bytes32 => Document) internal _documents;\n    // mapping to store the document name indexes\n    mapping(bytes32 => uint256) internal _docIndexes;\n    // Mapping from (investor, partition, operator) to approved status\n    mapping (address => mapping (bytes32 => mapping (address => bool))) partitionApprovals;\n\n}\n",
  "sourcePath": "/Users/hanbin/opusm/st-mvp/contracts/tokens/SecurityTokenStorage.sol",
  "compiler": {
    "name": "solc",
    "version": "0.8.19+commit.7dd6d404.Emscripten.clang"
  },
  "schemaVersion": "3.4.10",
  "updatedAt": "2023-07-24T08:15:11.981Z",
  "devdoc": {
    "kind": "dev",
    "methods": {},
    "version": 1
  },
  "userdoc": {
    "kind": "user",
    "methods": {},
    "version": 1
  }
}