{
  "contractName": "TokenLib",
  "abi": [
    {
      "anonymous": false,
      "inputs": [
        {
          "indexed": true,
          "internalType": "bytes32",
          "name": "_name",
          "type": "bytes32"
        },
        {
          "indexed": false,
          "internalType": "string",
          "name": "_uri",
          "type": "string"
        },
        {
          "indexed": false,
          "internalType": "bytes32",
          "name": "_documentHash",
          "type": "bytes32"
        }
      ],
      "name": "DocumentRemoved",
      "type": "event"
    },
    {
      "anonymous": false,
      "inputs": [
        {
          "indexed": true,
          "internalType": "bytes32",
          "name": "_name",
          "type": "bytes32"
        },
        {
          "indexed": false,
          "internalType": "string",
          "name": "_uri",
          "type": "string"
        },
        {
          "indexed": false,
          "internalType": "bytes32",
          "name": "_documentHash",
          "type": "bytes32"
        }
      ],
      "name": "DocumentUpdated",
      "type": "event"
    },
    {
      "anonymous": false,
      "inputs": [
        {
          "indexed": false,
          "internalType": "uint8[]",
          "name": "_types",
          "type": "uint8[]"
        },
        {
          "indexed": false,
          "internalType": "address",
          "name": "_module",
          "type": "address"
        }
      ],
      "name": "ModuleArchived",
      "type": "event"
    },
    {
      "anonymous": false,
      "inputs": [
        {
          "indexed": false,
          "internalType": "uint8[]",
          "name": "_moduleTypes",
          "type": "uint8[]"
        },
        {
          "indexed": false,
          "internalType": "address",
          "name": "_module",
          "type": "address"
        },
        {
          "indexed": false,
          "internalType": "uint256",
          "name": "_oldBudget",
          "type": "uint256"
        },
        {
          "indexed": false,
          "internalType": "uint256",
          "name": "_budget",
          "type": "uint256"
        }
      ],
      "name": "ModuleBudgetChanged",
      "type": "event"
    },
    {
      "anonymous": false,
      "inputs": [
        {
          "indexed": false,
          "internalType": "uint8[]",
          "name": "_types",
          "type": "uint8[]"
        },
        {
          "indexed": false,
          "internalType": "address",
          "name": "_module",
          "type": "address"
        }
      ],
      "name": "ModuleRemoved",
      "type": "event"
    },
    {
      "anonymous": false,
      "inputs": [
        {
          "indexed": false,
          "internalType": "uint8[]",
          "name": "_types",
          "type": "uint8[]"
        },
        {
          "indexed": false,
          "internalType": "address",
          "name": "_module",
          "type": "address"
        }
      ],
      "name": "ModuleUnarchived",
      "type": "event"
    },
    {
      "anonymous": false,
      "inputs": [
        {
          "indexed": false,
          "internalType": "uint8[]",
          "name": "_types",
          "type": "uint8[]"
        },
        {
          "indexed": false,
          "internalType": "address",
          "name": "_module",
          "type": "address"
        }
      ],
      "name": "ModuleUpgraded",
      "type": "event"
    },
    {
      "inputs": [
        {
          "internalType": "bytes",
          "name": "_signature",
          "type": "bytes"
        }
      ],
      "name": "recoverFreezeIssuanceAckSigner",
      "outputs": [
        {
          "internalType": "address",
          "name": "",
          "type": "address"
        }
      ],
      "stateMutability": "view",
      "type": "function"
    },
    {
      "inputs": [
        {
          "internalType": "bytes",
          "name": "_signature",
          "type": "bytes"
        }
      ],
      "name": "recoverDisableControllerAckSigner",
      "outputs": [
        {
          "internalType": "address",
          "name": "",
          "type": "address"
        }
      ],
      "stateMutability": "view",
      "type": "function"
    },
    {
      "inputs": [
        {
          "internalType": "bool",
          "name": "success",
          "type": "bool"
        },
        {
          "internalType": "bytes32",
          "name": "appCode",
          "type": "bytes32"
        },
        {
          "internalType": "address",
          "name": "to",
          "type": "address"
        },
        {
          "internalType": "uint256",
          "name": "value",
          "type": "uint256"
        },
        {
          "internalType": "uint256",
          "name": "balanceOfFrom",
          "type": "uint256"
        }
      ],
      "name": "canTransfer",
      "outputs": [
        {
          "internalType": "bytes1",
          "name": "",
          "type": "bytes1"
        },
        {
          "internalType": "bytes32",
          "name": "",
          "type": "bytes32"
        }
      ],
      "stateMutability": "pure",
      "type": "function"
    }
  ],
  "bytecode": "0x61505d610053600b82828239805160001a607314610046577f4e487b7100000000000000000000000000000000000000000000000000000000600052600060045260246000fd5b30600052607381538281f3fe73000000000000000000000000000000000000000030146080604052600436106100f45760003560e01c80639713735011610096578063c38890e111610070578063c38890e1146102c5578063cc90f5de146102ee578063dfb1f4111461031e578063e8f2029214610347576100f4565b8063971373501461024a578063ad24261514610273578063b7e2c7891461029c576100f4565b80634a02280e116100d25780634a02280e146101845780635a34d4d9146101ad5780637713083e146101dd578063943aef7b1461020d576100f4565b806309def7ee146100f95780631658f46a146101225780632c94d97b14610153575b600080fd5b81801561010557600080fd5b50610120600480360381019061011b91906127bc565b610370565b005b61013c60048036038101906101379190612a57565b61041f565b60405161014a929190612b3d565b60405180910390f35b61016d60048036038101906101689190612b92565b6106ea565b60405161017b929190612c48565b60405180910390f35b81801561019057600080fd5b506101ab60048036038101906101a69190612ce5565b61078d565b005b6101c760048036038101906101c29190612d85565b6109c9565b6040516101d49190612de1565b60405180910390f35b6101f760048036038101906101f29190612d85565b610a4c565b6040516102049190612de1565b60405180910390f35b81801561021957600080fd5b50610234600480360381019061022f9190612e3a565b610acf565b6040516102419190612eeb565b60405180910390f35b81801561025657600080fd5b50610271600480360381019061026c9190612ce5565b610cda565b005b81801561027f57600080fd5b5061029a60048036038101906102959190612f06565b610e3e565b005b8180156102a857600080fd5b506102c360048036038101906102be9190612fd5565b610fa3565b005b8180156102d157600080fd5b506102ec60048036038101906102e791906130a8565b61118b565b005b610308600480360381019061030391906127bc565b611810565b6040516103159190612eeb565b60405180910390f35b81801561032a57600080fd5b506103456004803603810190610340919061314d565b611a34565b005b81801561035357600080fd5b5061036e6004803603810190610369919061321e565b611dbc565b005b600081031561041a57600083805490501180156103c0575080836001858054905061039b91906132fc565b815481106103ac576103ab613330565b5b906000526020600020906002020160000154145b61041a57826040518060400160405280838152602001848152509080600181540180825580915050600190039060005260206000209060020201600090919091909150600082015181600001556020820151816001015550505b505050565b600080826106ab5760008060008080600090505b8d80549050811015610647578c60008f838154811061045557610454613330565b5b9060005260206000200160009054906101000a900473ffffffffffffffffffffffffffffffffffffffff1673ffffffffffffffffffffffffffffffffffffffff1673ffffffffffffffffffffffffffffffffffffffff16815260200190815260200160002060020160149054906101000a900460ff16610634576000808f83815481106104e5576104e4613330565b5b9060005260206000200160009054906101000a900473ffffffffffffffffffffffffffffffffffffffff1673ffffffffffffffffffffffffffffffffffffffff1663f1d74b0f8f8f8f8f6040518563ffffffff1660e01b815260040161054e94939291906133fc565b6040805180830381865afa15801561056a573d6000803e3d6000fd5b505050506040513d601f19601f8201168201806040525081019061058e9190613482565b91509150600060038111156105a6576105a56134c2565b5b8260038111156105b9576105b86134c2565b5b036105ca5760019650809350610631565b600260038111156105de576105dd6134c2565b5b8260038111156105f1576105f06134c2565b5b036105ff5760019550610630565b600380811115610612576106116134c2565b5b826003811115610625576106246134c2565b5b0361062f57600194505b5b5b50505b808061063f906134f1565b915050610433565b50816106605783610658578261065b565b60005b610663565b60015b92508283610671578161069e565b61067b6001611f8b565b7effffffffffffffffffffffffffffffffffffffffffffffffffffffffffffff19165b95509550505050506106de565b60006106b76004611f8b565b7effffffffffffffffffffffffffffffffffffffffffffffffffffffffffffff1916915091505b97509795505050505050565b60008086610706576106fc6000611f8b565b8691509150610783565b83831015610725576107186002611f8b565b6000801b91509150610783565b600073ffffffffffffffffffffffffffffffffffffffff168573ffffffffffffffffffffffffffffffffffffffff1603610770576107636007611f8b565b6000801b91509150610783565b61077a6001611f8b565b6000801b915091505b9550959350505050565b600073ffffffffffffffffffffffffffffffffffffffff168160010160009054906101000a900473ffffffffffffffffffffffffffffffffffffffff1673ffffffffffffffffffffffffffffffffffffffff1603610820576040517f08c379a000000000000000000000000000000000000000000000000000000000815260040161081790613596565b60405180910390fd5b8173ffffffffffffffffffffffffffffffffffffffff166336ef22ce8260020160009054906101000a900473ffffffffffffffffffffffffffffffffffffffff1660016040518363ffffffff1660e01b81526004016108809291906135c5565b600060405180830381600087803b15801561089a57600080fd5b505af11580156108ae573d6000803e3d6000fd5b505050508060020160009054906101000a900473ffffffffffffffffffffffffffffffffffffffff1673ffffffffffffffffffffffffffffffffffffffff16630900f0108260010160009054906101000a900473ffffffffffffffffffffffffffffffffffffffff166040518263ffffffff1660e01b815260040161093391906135ee565b600060405180830381600087803b15801561094d57600080fd5b505af1158015610961573d6000803e3d6000fd5b505050507fedc6007cc44783a48ceb845386592c8d22e6e21f3acd887104ba49340ae8cc5d816003018260010160009054906101000a900473ffffffffffffffffffffffffffffffffffffffff166040516109bd929190614389565b60405180910390a15050565b60008060405180602001604052806040518060800160405280604d8152602001614fdb604d91398152509050610a438185858080601f016020809104026020016040519081016040528093929190818152602001838380828437600081840152601f19601f82011690508083019250505050505050611fb6565b91505092915050565b60008060405180602001604052806040518060800160405280604a8152602001614f91604a91398152509050610ac68185858080601f016020809104026020016040519081016040528093929190818152602001838380828437600081840152601f19601f82011690508083019250505050505050611fb6565b91505092915050565b6000808890506000861480610b0f57508673ffffffffffffffffffffffffffffffffffffffff168873ffffffffffffffffffffffffffffffffffffffff16145b15610b1d5780915050610ccf565b600085148015610b5a5750600073ffffffffffffffffffffffffffffffffffffffff168773ffffffffffffffffffffffffffffffffffffffff1614155b15610cac57610b7360018261213390919063ffffffff16565b9050610b7f8784612149565b610cab578273ffffffffffffffffffffffffffffffffffffffff166381d65b2d7fdf3a8dd24acdd05addfc6aeffef7574d2de3f844535ec91e8e0f3e45dba9673160001b896040518363ffffffff1660e01b8152600401610be19291906143c8565b600060405180830381600087803b158015610bfb57600080fd5b505af1158015610c0f573d6000803e3d6000fd5b505050508273ffffffffffffffffffffffffffffffffffffffff16634f3029c2610c597f57484954454c49535400000000000000000000000000000000000000000000008a61220f565b60016040518363ffffffff1660e01b8152600401610c789291906143f1565b600060405180830381600087803b158015610c9257600080fd5b505af1158015610ca6573d6000803e3d6000fd5b505050505b5b838603610cca57610cc760018261224290919063ffffffff16565b90505b809150505b979650505050505050565b8060020160149054906101000a900460ff16610d2b576040517f08c379a0000000000000000000000000000000000000000000000000000000008152600401610d2290614466565b60405180910390fd5b8173ffffffffffffffffffffffffffffffffffffffff166336ef22ce8260020160009054906101000a900473ffffffffffffffffffffffffffffffffffffffff1660016040518363ffffffff1660e01b8152600401610d8b9291906135c5565b600060405180830381600087803b158015610da557600080fd5b505af1158015610db9573d6000803e3d6000fd5b505050507fe69e438aa3b4b943ac4c807820403a6e5815b8fbb7fccfac629fce87ff6d430d816003018260010160009054906101000a900473ffffffffffffffffffffffffffffffffffffffff16604051610e15929190614389565b60405180910390a160008160020160146101000a81548160ff0219169083151502179055505050565b8060020160149054906101000a900460ff1615610e90576040517f08c379a0000000000000000000000000000000000000000000000000000000008152600401610e87906144d2565b60405180910390fd5b600073ffffffffffffffffffffffffffffffffffffffff168160010160009054906101000a900473ffffffffffffffffffffffffffffffffffffffff1673ffffffffffffffffffffffffffffffffffffffff1603610f23576040517f08c379a0000000000000000000000000000000000000000000000000000000008152600401610f1a90613596565b60405180910390fd5b7f78914da53c30c0667830d562877caed5c20adc645b8557fa64336c22a9b8ece6816003018260010160009054906101000a900473ffffffffffffffffffffffffffffffffffffffff16604051610f7b929190614389565b60405180910390a160018160020160146101000a81548160ff02191690831515021790555050565b60008460008381526020019081526020016000206001015403610ffb576040517f08c379a0000000000000000000000000000000000000000000000000000000008152600401610ff29061453e565b60405180910390fd5b600060018360008481526020019081526020016000205461101c91906132fc565b90506001848054905061102f91906132fc565b81146110c557836001858054905061104791906132fc565b8154811061105857611057613330565b5b906000526020600020015484828154811061107657611075613330565b5b9060005260206000200181905550600181611091919061455e565b8360008684815481106110a7576110a6613330565b5b90600052602060002001548152602001908152602001600020819055505b838054806110d6576110d5614592565b5b60019003818190600052602060002001600090559055817f3d9bba27d3e360d8c80645beed7e991454a8271bf6f269a24f7782be0f0d0654866000858152602001908152602001600020600201876000868152602001908152602001600020600001546040516111479291906146ba565b60405180910390a284600083815260200190815260200160002060008082016000905560018201600090556002820160006111829190612696565b50505050505050565b8160008573ffffffffffffffffffffffffffffffffffffffff1673ffffffffffffffffffffffffffffffffffffffff16815260200190815260200160002060020160149054906101000a900460ff16611219576040517f08c379a000000000000000000000000000000000000000000000000000000000815260040161121090614736565b60405180910390fd5b600073ffffffffffffffffffffffffffffffffffffffff168260008673ffffffffffffffffffffffffffffffffffffffff1673ffffffffffffffffffffffffffffffffffffffff16815260200190815260200160002060010160009054906101000a900473ffffffffffffffffffffffffffffffffffffffff1673ffffffffffffffffffffffffffffffffffffffff16036112e9576040517f08c379a00000000000000000000000000000000000000000000000000000000081526004016112e090613596565b60405180910390fd5b7ff4e9f735975718dce0ac83fb73f88a1b19a48186af0f6348c04c6229eb4b86a08260008673ffffffffffffffffffffffffffffffffffffffff1673ffffffffffffffffffffffffffffffffffffffff1681526020019081526020016000206003018560405161135a929190614389565b60405180910390a160008260008673ffffffffffffffffffffffffffffffffffffffff1673ffffffffffffffffffffffffffffffffffffffff16815260200190815260200160002060030180548060200260200160405190810160405280929190818152602001828054801561141557602002820191906000526020600020906000905b82829054906101000a900460ff1660ff16815260200190600101906020826000010492830192600103820291508084116113de5790505b5050505050905060005b81518110156114be576114ab82828151811061143e5761143d613330565b5b60200260200101518560008973ffffffffffffffffffffffffffffffffffffffff1673ffffffffffffffffffffffffffffffffffffffff168152602001908152602001600020600401838154811061149957611498613330565b5b90600052602060002001548787612258565b80806114b6906134f1565b91505061141f565b5060008360008773ffffffffffffffffffffffffffffffffffffffff1673ffffffffffffffffffffffffffffffffffffffff16815260200190815260200160002060050154905060008460008873ffffffffffffffffffffffffffffffffffffffff1673ffffffffffffffffffffffffffffffffffffffff168152602001908152602001600020600001549050600084600083815260200190815260200160002080549050905084600083815260200190815260200160002060018261158491906132fc565b8154811061159557611594613330565b5b9060005260206000200160009054906101000a900473ffffffffffffffffffffffffffffffffffffffff1685600084815260200190815260200160002084815481106115e4576115e3613330565b5b9060005260206000200160006101000a81548173ffffffffffffffffffffffffffffffffffffffff021916908373ffffffffffffffffffffffffffffffffffffffff16021790555084600083815260200190815260200160002080548061164e5761164d614592565b5b6001900381819060005260206000200160006101000a81549073ffffffffffffffffffffffffffffffffffffffff021916905590558260018261169191906132fc565b1461172b578286600087600086815260200190815260200160002086815481106116be576116bd613330565b5b9060005260206000200160009054906101000a900473ffffffffffffffffffffffffffffffffffffffff1673ffffffffffffffffffffffffffffffffffffffff1673ffffffffffffffffffffffffffffffffffffffff168152602001908152602001600020600501819055505b8560008973ffffffffffffffffffffffffffffffffffffffff1673ffffffffffffffffffffffffffffffffffffffff1681526020019081526020016000206000808201600090556001820160006101000a81549073ffffffffffffffffffffffffffffffffffffffff02191690556002820160006101000a81549073ffffffffffffffffffffffffffffffffffffffff02191690556002820160146101000a81549060ff02191690556003820160006117e491906126d6565b6004820160006117f491906126fe565b6005820160009055600682016000905550505050505050505050565b60008083036118225760009050611a2d565b600084805490500361183657819050611a2d565b828460008154811061184b5761184a613330565b5b9060005260206000209060020201600001541061188f578360008154811061187657611875613330565b5b9060005260206000209060020201600101549050611a2d565b8284600186805490506118a291906132fc565b815481106118b3576118b2613330565b5b90600052602060002090600202016000015410156118d357819050611a2d565b8284600186805490506118e691906132fc565b815481106118f7576118f6613330565b5b9060005260206000209060020201600001540361194a57836001858054905061192091906132fc565b8154811061193157611930613330565b5b9060005260206000209060020201600101549050611a2d565b6000806001868054905061195e91906132fc565b90505b81811115611a0357600060028383611979919061455e565b6119839190614785565b90508587828154811061199957611998613330565b5b906000526020600020906002020160000154036119b95780915050611a03565b858782815481106119cd576119cc613330565b5b90600052602060002090600202016000015410156119f9576001816119f2919061455e565b92506119fd565b8091505b50611961565b858181548110611a1657611a15613330565b5b906000526020600020906002020160010154925050505b9392505050565b600073ffffffffffffffffffffffffffffffffffffffff168160008773ffffffffffffffffffffffffffffffffffffffff1673ffffffffffffffffffffffffffffffffffffffff16815260200190815260200160002060010160009054906101000a900473ffffffffffffffffffffffffffffffffffffffff1673ffffffffffffffffffffffffffffffffffffffff1603611b04576040517f08c379a0000000000000000000000000000000000000000000000000000000008152600401611afb90613596565b60405180910390fd5b60008273ffffffffffffffffffffffffffffffffffffffff1663dd62ed3e30886040518363ffffffff1660e01b8152600401611b419291906147b6565b602060405180830381865afa158015611b5e573d6000803e3d6000fd5b505050506040513d601f19601f82011682018060405250810190611b8291906147f4565b905060008415611c63578373ffffffffffffffffffffffffffffffffffffffff1663d73dd62388886040518363ffffffff1660e01b8152600401611bc7929190614821565b6020604051808303816000875af1158015611be6573d6000803e3d6000fd5b505050506040513d601f19601f82011682018060405250810190611c0a919061485f565b611c49576040517f08c379a0000000000000000000000000000000000000000000000000000000008152600401611c40906148d8565b60405180910390fd5b611c5c868361213390919063ffffffff16565b9050611d36565b8373ffffffffffffffffffffffffffffffffffffffff16636618846388886040518363ffffffff1660e01b8152600401611c9e929190614821565b6020604051808303816000875af1158015611cbd573d6000803e3d6000fd5b505050506040513d601f19601f82011682018060405250810190611ce1919061485f565b611d20576040517f08c379a0000000000000000000000000000000000000000000000000000000008152600401611d1790614944565b60405180910390fd5b611d33868361224290919063ffffffff16565b90505b7fa00a1c33ebb7433724919cb1059328c16265f935ef84a13442045da3e81c0ccc8360008973ffffffffffffffffffffffffffffffffffffffff1673ffffffffffffffffffffffffffffffffffffffff168152602001908152602001600020600301888484604051611dab9493929190614964565b60405180910390a150505050505050565b6000801b8403611e01576040517f08c379a0000000000000000000000000000000000000000000000000000000008152600401611df8906149fc565b60405180910390fd5b60008383905011611e47576040517f08c379a0000000000000000000000000000000000000000000000000000000008152600401611e3e90614a68565b60405180910390fd5b60008760008681526020019081526020016000206001015403611ea857858490806001815401808255809150506001900390600052602060002001600090919091909150558580549050856000868152602001908152602001600020819055505b604051806060016040528082815260200142815260200184848080601f016020809104026020016040519081016040528093929190818152602001838380828437600081840152601f19601f8201169050808301925050505050505081525087600086815260200190815260200160002060008201518160000155602082015181600101556040820151816002019081611f429190614c2a565b50905050837fb4c22d60cd550a815744f04e3ff5278bf19684565ee00e2b084041b6024bd6f6848484604051611f7a93929190614d29565b60405180910390a250505050505050565b6000816008811115611fa057611f9f6134c2565b5b6050611fac9190614d5b565b60f81b9050919050565b6000806000806041855114611fd1576000935050505061212d565b6020850151925060408501519150606085015160001a9050601b8160ff16101561200557601b816120029190614d5b565b90505b601b8160ff161415801561201d5750601c8160ff1614155b1561202e576000935050505061212d565b600061209f60405180606001604052806040518060400160405280600881526020017f506f6c796d6174680000000000000000000000000000000000000000000000008152508152602001600181526020013073ffffffffffffffffffffffffffffffffffffffff168152506125d0565b90506000816120ad89612639565b6040516020016120be929190614e08565b604051602081830303815290604052805190602001209050600181848787604051600081526020016040526040516120f99493929190614e4e565b6020604051602081039080840390855afa15801561211b573d6000803e3d6000fd5b50505060206040510351955050505050505b92915050565b60008183612141919061455e565b905092915050565b6000808273ffffffffffffffffffffffffffffffffffffffff166333598b006121927f57484954454c49535400000000000000000000000000000000000000000000008761220f565b6040518263ffffffff1660e01b81526004016121ae9190614e93565b602060405180830381865afa1580156121cb573d6000803e3d6000fd5b505050506040513d601f19601f820116820180604052508101906121ef91906147f4565b905060008160ff1614612203576001612206565b60005b91505092915050565b60008282604051602001612224929190614ef6565b60405160208183030381529060405280519060200120905092915050565b6000818361225091906132fc565b905092915050565b60008260008660ff1660ff1681526020019081526020016000208054905090508260008660ff1660ff16815260200190815260200160002060018261229d91906132fc565b815481106122ae576122ad613330565b5b9060005260206000200160009054906101000a900473ffffffffffffffffffffffffffffffffffffffff168360008760ff1660ff168152602001908152602001600020858154811061230357612302613330565b5b9060005260206000200160006101000a81548173ffffffffffffffffffffffffffffffffffffffff021916908373ffffffffffffffffffffffffffffffffffffffff1602179055508260008660ff1660ff16815260200190815260200160002080548061237357612372614592565b5b6001900381819060005260206000200160006101000a81549073ffffffffffffffffffffffffffffffffffffffff02191690559055836001826123b691906132fc565b146125c95760008260008560008960ff1660ff16815260200190815260200160002087815481106123ea576123e9613330565b5b9060005260206000200160009054906101000a900473ffffffffffffffffffffffffffffffffffffffff1673ffffffffffffffffffffffffffffffffffffffff1673ffffffffffffffffffffffffffffffffffffffff1681526020019081526020016000206003018054806020026020016040519081016040528092919081815260200182805480156124c257602002820191906000526020600020906000905b82829054906101000a900460ff1660ff168152602001906001019060208260000104928301926001038202915080841161248b5790505b5050505050905060005b81518110156125c6578660ff168282815181106124ec576124eb613330565b5b602002602001015160ff16036125b357858460008760008b60ff1660ff168152602001908152602001600020898154811061252a57612529613330565b5b9060005260206000200160009054906101000a900473ffffffffffffffffffffffffffffffffffffffff1673ffffffffffffffffffffffffffffffffffffffff1673ffffffffffffffffffffffffffffffffffffffff16815260200190815260200160002060040182815481106125a4576125a3613330565b5b90600052602060002001819055505b80806125be906134f1565b9150506124cc565b50505b5050505050565b60007f8cad95687ba82c2ce50e74f7b754645e5117c3a5bec8151c0726d5857980a8668260000151805190602001208360200151846040015160405160200161261c9493929190614f22565b604051602081830303815290604052805190602001209050919050565b60007f4f4f12b8988b86580f28fbc0ddfce1dbd195055d3b79901a72f5bb149fe3a446826000015180519060200120604051602001612679929190614f67565b604051602081830303815290604052805190602001209050919050565b5080546126a2906145f0565b6000825580601f106126b457506126d3565b601f0160209004906000526020600020908101906126d2919061271f565b5b50565b50805460008255601f0160209004906000526020600020908101906126fb919061271f565b50565b508054600082559060005260206000209081019061271c919061271f565b50565b5b80821115612738576000816000905550600101612720565b5090565b6000604051905090565b600080fd5b600080fd5b6000819050919050565b61276381612750565b811461276e57600080fd5b50565b6000813590506127808161275a565b92915050565b6000819050919050565b61279981612786565b81146127a457600080fd5b50565b6000813590506127b681612790565b92915050565b6000806000606084860312156127d5576127d4612746565b5b60006127e386828701612771565b93505060206127f4868287016127a7565b9250506040612805868287016127a7565b9150509250925092565b6000819050919050565b6128228161280f565b811461282d57600080fd5b50565b60008135905061283f81612819565b92915050565b6000819050919050565b61285881612845565b811461286357600080fd5b50565b6000813590506128758161284f565b92915050565b600073ffffffffffffffffffffffffffffffffffffffff82169050919050565b60006128a68261287b565b9050919050565b6128b68161289b565b81146128c157600080fd5b50565b6000813590506128d3816128ad565b92915050565b600080fd5b600080fd5b6000601f19601f8301169050919050565b7f4e487b7100000000000000000000000000000000000000000000000000000000600052604160045260246000fd5b61292c826128e3565b810181811067ffffffffffffffff8211171561294b5761294a6128f4565b5b80604052505050565b600061295e61273c565b905061296a8282612923565b919050565b600067ffffffffffffffff82111561298a576129896128f4565b5b612993826128e3565b9050602081019050919050565b82818337600083830152505050565b60006129c26129bd8461296f565b612954565b9050828152602081018484840111156129de576129dd6128de565b5b6129e98482856129a0565b509392505050565b600082601f830112612a0657612a056128d9565b5b8135612a168482602086016129af565b91505092915050565b60008115159050919050565b612a3481612a1f565b8114612a3f57600080fd5b50565b600081359050612a5181612a2b565b92915050565b600080600080600080600060e0888a031215612a7657612a75612746565b5b6000612a848a828b01612830565b9750506020612a958a828b01612866565b9650506040612aa68a828b016128c4565b9550506060612ab78a828b016128c4565b9450506080612ac88a828b016127a7565b93505060a088013567ffffffffffffffff811115612ae957612ae861274b565b5b612af58a828b016129f1565b92505060c0612b068a828b01612a42565b91505092959891949750929550565b612b1e81612a1f565b82525050565b6000819050919050565b612b3781612b24565b82525050565b6000604082019050612b526000830185612b15565b612b5f6020830184612b2e565b9392505050565b612b6f81612b24565b8114612b7a57600080fd5b50565b600081359050612b8c81612b66565b92915050565b600080600080600060a08688031215612bae57612bad612746565b5b6000612bbc88828901612a42565b9550506020612bcd88828901612b7d565b9450506040612bde888289016128c4565b9350506060612bef888289016127a7565b9250506080612c00888289016127a7565b9150509295509295909350565b60007fff0000000000000000000000000000000000000000000000000000000000000082169050919050565b612c4281612c0d565b82525050565b6000604082019050612c5d6000830185612c39565b612c6a6020830184612b2e565b9392505050565b6000612c7c8261289b565b9050919050565b612c8c81612c71565b8114612c9757600080fd5b50565b600081359050612ca981612c83565b92915050565b6000819050919050565b612cc281612caf565b8114612ccd57600080fd5b50565b600081359050612cdf81612cb9565b92915050565b60008060408385031215612cfc57612cfb612746565b5b6000612d0a85828601612c9a565b9250506020612d1b85828601612cd0565b9150509250929050565b600080fd5b600080fd5b60008083601f840112612d4557612d446128d9565b5b8235905067ffffffffffffffff811115612d6257612d61612d25565b5b602083019150836001820283011115612d7e57612d7d612d2a565b5b9250929050565b60008060208385031215612d9c57612d9b612746565b5b600083013567ffffffffffffffff811115612dba57612db961274b565b5b612dc685828601612d2f565b92509250509250929050565b612ddb8161289b565b82525050565b6000602082019050612df66000830184612dd2565b92915050565b6000612e078261289b565b9050919050565b612e1781612dfc565b8114612e2257600080fd5b50565b600081359050612e3481612e0e565b92915050565b600080600080600080600060e0888a031215612e5957612e58612746565b5b6000612e678a828b016127a7565b9750506020612e788a828b016128c4565b9650506040612e898a828b016128c4565b9550506060612e9a8a828b016127a7565b9450506080612eab8a828b016127a7565b93505060a0612ebc8a828b016127a7565b92505060c0612ecd8a828b01612e25565b91505092959891949750929550565b612ee581612786565b82525050565b6000602082019050612f006000830184612edc565b92915050565b600060208284031215612f1c57612f1b612746565b5b6000612f2a84828501612cd0565b91505092915050565b6000819050919050565b612f4681612f33565b8114612f5157600080fd5b50565b600081359050612f6381612f3d565b92915050565b6000819050919050565b612f7c81612f69565b8114612f8757600080fd5b50565b600081359050612f9981612f73565b92915050565b6000819050919050565b612fb281612f9f565b8114612fbd57600080fd5b50565b600081359050612fcf81612fa9565b92915050565b60008060008060808587031215612fef57612fee612746565b5b6000612ffd87828801612f54565b945050602061300e87828801612f8a565b935050604061301f87828801612fc0565b925050606061303087828801612b7d565b91505092959194509250565b6000819050919050565b61304f8161303c565b811461305a57600080fd5b50565b60008135905061306c81613046565b92915050565b6000819050919050565b61308581613072565b811461309057600080fd5b50565b6000813590506130a28161307c565b92915050565b600080600080608085870312156130c2576130c1612746565b5b60006130d0878288016128c4565b94505060206130e18782880161305d565b93505060406130f287828801612866565b925050606061310387828801613093565b91505092959194509250565b600061311a8261289b565b9050919050565b61312a8161310f565b811461313557600080fd5b50565b60008135905061314781613121565b92915050565b600080600080600060a0868803121561316957613168612746565b5b6000613177888289016128c4565b9550506020613188888289016127a7565b945050604061319988828901612a42565b93505060606131aa88828901613138565b92505060806131bb88828901612866565b9150509295509295909350565b60008083601f8401126131de576131dd6128d9565b5b8235905067ffffffffffffffff8111156131fb576131fa612d25565b5b60208301915083600182028301111561321757613216612d2a565b5b9250929050565b600080600080600080600060c0888a03121561323d5761323c612746565b5b600061324b8a828b01612f54565b975050602061325c8a828b01612f8a565b965050604061326d8a828b01612fc0565b955050606061327e8a828b01612b7d565b945050608088013567ffffffffffffffff81111561329f5761329e61274b565b5b6132ab8a828b016131c8565b935093505060a06132be8a828b01612b7d565b91505092959891949750929550565b7f4e487b7100000000000000000000000000000000000000000000000000000000600052601160045260246000fd5b600061330782612786565b915061331283612786565b925082820390508181111561332a576133296132cd565b5b92915050565b7f4e487b7100000000000000000000000000000000000000000000000000000000600052603260045260246000fd5b6133688161289b565b82525050565b61337781612786565b82525050565b600081519050919050565b600082825260208201905092915050565b60005b838110156133b757808201518184015260208101905061339c565b60008484015250505050565b60006133ce8261337d565b6133d88185613388565b93506133e8818560208601613399565b6133f1816128e3565b840191505092915050565b6000608082019050613411600083018761335f565b61341e602083018661335f565b61342b604083018561336e565b818103606083015261343d81846133c3565b905095945050505050565b6004811061345557600080fd5b50565b60008151905061346781613448565b92915050565b60008151905061347c81612b66565b92915050565b6000806040838503121561349957613498612746565b5b60006134a785828601613458565b92505060206134b88582860161346d565b9150509250929050565b7f4e487b7100000000000000000000000000000000000000000000000000000000600052602160045260246000fd5b60006134fc82612786565b91507fffffffffffffffffffffffffffffffffffffffffffffffffffffffffffffffff820361352e5761352d6132cd565b5b600182019050919050565b600082825260208201905092915050565b7f4d6f64756c65206d697373696e67000000000000000000000000000000000000600082015250565b6000613580600e83613539565b915061358b8261354a565b602082019050919050565b600060208201905081810360008301526135af81613573565b9050919050565b6135bf81612a1f565b82525050565b60006040820190506135da600083018561335f565b6135e760208301846135b6565b9392505050565b6000602082019050613603600083018461335f565b92915050565b600081549050919050565b600082825260208201905092915050565b60008190508160005260206000209050919050565b600060ff82169050919050565b6136508161363a565b82525050565b60008160001c9050919050565b600060ff82169050919050565b600061368361367e83613656565b613663565b9050919050565b60008160081c9050919050565b60006136aa6136a58361368a565b613663565b9050919050565b60008160101c9050919050565b60006136d16136cc836136b1565b613663565b9050919050565b60008160181c9050919050565b60006136f86136f3836136d8565b613663565b9050919050565b60008160201c9050919050565b600061371f61371a836136ff565b613663565b9050919050565b60008160281c9050919050565b600061374661374183613726565b613663565b9050919050565b60008160301c9050919050565b600061376d6137688361374d565b613663565b9050919050565b60008160381c9050919050565b600061379461378f83613774565b613663565b9050919050565b60008160401c9050919050565b60006137bb6137b68361379b565b613663565b9050919050565b60008160481c9050919050565b60006137e26137dd836137c2565b613663565b9050919050565b60008160501c9050919050565b6000613809613804836137e9565b613663565b9050919050565b60008160581c9050919050565b600061383061382b83613810565b613663565b9050919050565b60008160601c9050919050565b600061385761385283613837565b613663565b9050919050565b60008160681c9050919050565b600061387e6138798361385e565b613663565b9050919050565b60008160701c9050919050565b60006138a56138a083613885565b613663565b9050919050565b60008160781c9050919050565b60006138cc6138c7836138ac565b613663565b9050919050565b60008160801c9050919050565b60006138f36138ee836138d3565b613663565b9050919050565b60008160881c9050919050565b600061391a613915836138fa565b613663565b9050919050565b60008160901c9050919050565b600061394161393c83613921565b613663565b9050919050565b60008160981c9050919050565b600061396861396383613948565b613663565b9050919050565b60008160a01c9050919050565b600061398f61398a8361396f565b613663565b9050919050565b60008160a81c9050919050565b60006139b66139b183613996565b613663565b9050919050565b60008160b01c9050919050565b60006139dd6139d8836139bd565b613663565b9050919050565b60008160b81c9050919050565b6000613a046139ff836139e4565b613663565b9050919050565b60008160c01c9050919050565b6000613a2b613a2683613a0b565b613663565b9050919050565b60008160c81c9050919050565b6000613a52613a4d83613a32565b613663565b9050919050565b60008160d01c9050919050565b6000613a79613a7483613a59565b613663565b9050919050565b60008160d81c9050919050565b6000613aa0613a9b83613a80565b613663565b9050919050565b60008160e01c9050919050565b6000613ac7613ac283613aa7565b613663565b9050919050565b60008160e81c9050919050565b6000613aee613ae983613ace565b613663565b9050919050565b60008160f01c9050919050565b6000613b15613b1083613af5565b613663565b9050919050565b60008160f81c9050919050565b6000613b3c613b3783613b1c565b613663565b9050919050565b6000613b4e82613609565b613b588185613614565b935083613b6484613625565b6000600115613e91575b83600160200382011015613e90578154613b9088613b8b83613670565b613647565b602088019750613ba888613ba383613697565b613647565b602088019750613bc088613bbb836136be565b613647565b602088019750613bd888613bd3836136e5565b613647565b602088019750613bf088613beb8361370c565b613647565b602088019750613c0888613c0383613733565b613647565b602088019750613c2088613c1b8361375a565b613647565b602088019750613c3888613c3383613781565b613647565b602088019750613c5088613c4b836137a8565b613647565b602088019750613c6888613c63836137cf565b613647565b602088019750613c8088613c7b836137f6565b613647565b602088019750613c9888613c938361381d565b613647565b602088019750613cb088613cab83613844565b613647565b602088019750613cc888613cc38361386b565b613647565b602088019750613ce088613cdb83613892565b613647565b602088019750613cf888613cf3836138b9565b613647565b602088019750613d1088613d0b836138e0565b613647565b602088019750613d2888613d2383613907565b613647565b602088019750613d4088613d3b8361392e565b613647565b602088019750613d5888613d5383613955565b613647565b602088019750613d7088613d6b8361397c565b613647565b602088019750613d8888613d83836139a3565b613647565b602088019750613da088613d9b836139ca565b613647565b602088019750613db888613db3836139f1565b613647565b602088019750613dd088613dcb83613a18565b613647565b602088019750613de888613de383613a3f565b613647565b602088019750613e0088613dfb83613a66565b613647565b602088019750613e1888613e1383613a8d565b613647565b602088019750613e3088613e2b83613ab4565b613647565b602088019750613e4888613e4383613adb565b613647565b602088019750613e6088613e5b83613b02565b613647565b602088019750613e7888613e7383613b29565b613647565b60208801975060018301925050602081019050613b6e565b5b60011561437c57815484821015613ec157613eb488613eaf83613670565b613647565b6020880197506001820191505b84821015613ee857613edb88613ed683613697565b613647565b6020880197506001820191505b84821015613f0f57613f0288613efd836136be565b613647565b6020880197506001820191505b84821015613f3657613f2988613f24836136e5565b613647565b6020880197506001820191505b84821015613f5d57613f5088613f4b8361370c565b613647565b6020880197506001820191505b84821015613f8457613f7788613f7283613733565b613647565b6020880197506001820191505b84821015613fab57613f9e88613f998361375a565b613647565b6020880197506001820191505b84821015613fd257613fc588613fc083613781565b613647565b6020880197506001820191505b84821015613ff957613fec88613fe7836137a8565b613647565b6020880197506001820191505b84821015614020576140138861400e836137cf565b613647565b6020880197506001820191505b848210156140475761403a88614035836137f6565b613647565b6020880197506001820191505b8482101561406e576140618861405c8361381d565b613647565b6020880197506001820191505b84821015614095576140888861408383613844565b613647565b6020880197506001820191505b848210156140bc576140af886140aa8361386b565b613647565b6020880197506001820191505b848210156140e3576140d6886140d183613892565b613647565b6020880197506001820191505b8482101561410a576140fd886140f8836138b9565b613647565b6020880197506001820191505b84821015614131576141248861411f836138e0565b613647565b6020880197506001820191505b848210156141585761414b8861414683613907565b613647565b6020880197506001820191505b8482101561417f576141728861416d8361392e565b613647565b6020880197506001820191505b848210156141a6576141998861419483613955565b613647565b6020880197506001820191505b848210156141cd576141c0886141bb8361397c565b613647565b6020880197506001820191505b848210156141f4576141e7886141e2836139a3565b613647565b6020880197506001820191505b8482101561421b5761420e88614209836139ca565b613647565b6020880197506001820191505b848210156142425761423588614230836139f1565b613647565b6020880197506001820191505b848210156142695761425c8861425783613a18565b613647565b6020880197506001820191505b84821015614290576142838861427e83613a3f565b613647565b6020880197506001820191505b848210156142b7576142aa886142a583613a66565b613647565b6020880197506001820191505b848210156142de576142d1886142cc83613a8d565b613647565b6020880197506001820191505b84821015614305576142f8886142f383613ab4565b613647565b6020880197506001820191505b8482101561432c5761431f8861431a83613adb565b613647565b6020880197506001820191505b84821015614353576143468861434183613b02565b613647565b6020880197506001820191505b8482101561437a5761436d8861436883613b29565b613647565b6020880197506001820191505b505b8694505050505092915050565b600060408201905081810360008301526143a38185613b43565b90506143b2602083018461335f565b9392505050565b6143c281612b24565b82525050565b60006040820190506143dd60008301856143b9565b6143ea602083018461335f565b9392505050565b600060408201905061440660008301856143b9565b614413602083018461336e565b9392505050565b7f4d6f64756c6520756e6172636869766564000000000000000000000000000000600082015250565b6000614450601183613539565b915061445b8261441a565b602082019050919050565b6000602082019050818103600083015261447f81614443565b9050919050565b7f4d6f64756c652061726368697665640000000000000000000000000000000000600082015250565b60006144bc600f83613539565b91506144c782614486565b602082019050919050565b600060208201905081810360008301526144eb816144af565b9050919050565b7f4e6f742065786973746564000000000000000000000000000000000000000000600082015250565b6000614528600b83613539565b9150614533826144f2565b602082019050919050565b600060208201905081810360008301526145578161451b565b9050919050565b600061456982612786565b915061457483612786565b925082820190508082111561458c5761458b6132cd565b5b92915050565b7f4e487b7100000000000000000000000000000000000000000000000000000000600052603160045260246000fd5b7f4e487b7100000000000000000000000000000000000000000000000000000000600052602260045260246000fd5b6000600282049050600182168061460857607f821691505b60208210810361461b5761461a6145c1565b5b50919050565b60008190508160005260206000209050919050565b60008154614643816145f0565b61464d8186613539565b94506001821660008114614668576001811461467e576146b1565b60ff1983168652811515602002860193506146b1565b61468785614621565b60005b838110156146a95781548189015260018201915060208101905061468a565b808801955050505b50505092915050565b600060408201905081810360008301526146d48185614636565b90506146e360208301846143b9565b9392505050565b7f4e6f742061726368697665640000000000000000000000000000000000000000600082015250565b6000614720600c83613539565b915061472b826146ea565b602082019050919050565b6000602082019050818103600083015261474f81614713565b9050919050565b7f4e487b7100000000000000000000000000000000000000000000000000000000600052601260045260246000fd5b600061479082612786565b915061479b83612786565b9250826147ab576147aa614756565b5b828204905092915050565b60006040820190506147cb600083018561335f565b6147d8602083018461335f565b9392505050565b6000815190506147ee81612790565b92915050565b60006020828403121561480a57614809612746565b5b6000614818848285016147df565b91505092915050565b6000604082019050614836600083018561335f565b614843602083018461336e565b9392505050565b60008151905061485981612a2b565b92915050565b60006020828403121561487557614874612746565b5b60006148838482850161484a565b91505092915050565b7f496e637265617365417070726f76616c206661696c0000000000000000000000600082015250565b60006148c2601583613539565b91506148cd8261488c565b602082019050919050565b600060208201905081810360008301526148f1816148b5565b9050919050565b7f496e73756666696369656e7420616c6c6f77616e636500000000000000000000600082015250565b600061492e601683613539565b9150614939826148f8565b602082019050919050565b6000602082019050818103600083015261495d81614921565b9050919050565b6000608082019050818103600083015261497e8187613b43565b905061498d602083018661335f565b61499a604083018561336e565b6149a7606083018461336e565b95945050505050565b7f426164206e616d65000000000000000000000000000000000000000000000000600082015250565b60006149e6600883613539565b91506149f1826149b0565b602082019050919050565b60006020820190508181036000830152614a15816149d9565b9050919050565b7f4261642075726900000000000000000000000000000000000000000000000000600082015250565b6000614a52600783613539565b9150614a5d82614a1c565b602082019050919050565b60006020820190508181036000830152614a8181614a45565b9050919050565b600081519050919050565b60006020601f8301049050919050565b600082821b905092915050565b600060088302614ae07fffffffffffffffffffffffffffffffffffffffffffffffffffffffffffffffff82614aa3565b614aea8683614aa3565b95508019841693508086168417925050509392505050565b6000819050919050565b6000614b27614b22614b1d84612786565b614b02565b612786565b9050919050565b6000819050919050565b614b4183614b0c565b614b55614b4d82614b2e565b848454614ab0565b825550505050565b600090565b614b6a614b5d565b614b75818484614b38565b505050565b5b81811015614b9957614b8e600082614b62565b600181019050614b7b565b5050565b601f821115614bde57614baf81614621565b614bb884614a93565b81016020851015614bc7578190505b614bdb614bd385614a93565b830182614b7a565b50505b505050565b600082821c905092915050565b6000614c0160001984600802614be3565b1980831691505092915050565b6000614c1a8383614bf0565b9150826002028217905092915050565b614c3382614a88565b67ffffffffffffffff811115614c4c57614c4b6128f4565b5b614c5682546145f0565b614c61828285614b9d565b600060209050601f831160018114614c945760008415614c82578287015190505b614c8c8582614c0e565b865550614cf4565b601f198416614ca286614621565b60005b82811015614cca57848901518255600182019150602085019450602081019050614ca5565b86831015614ce75784890151614ce3601f891682614bf0565b8355505b6001600288020188555050505b505050505050565b6000614d088385613539565b9350614d158385846129a0565b614d1e836128e3565b840190509392505050565b60006040820190508181036000830152614d44818587614cfc565b9050614d5360208301846143b9565b949350505050565b6000614d668261363a565b9150614d718361363a565b9250828201905060ff811115614d8a57614d896132cd565b5b92915050565b600081905092915050565b7f1901000000000000000000000000000000000000000000000000000000000000600082015250565b6000614dd1600283614d90565b9150614ddc82614d9b565b600282019050919050565b6000819050919050565b614e02614dfd82612b24565b614de7565b82525050565b6000614e1382614dc4565b9150614e1f8285614df1565b602082019150614e2f8284614df1565b6020820191508190509392505050565b614e488161363a565b82525050565b6000608082019050614e6360008301876143b9565b614e706020830186614e3f565b614e7d60408301856143b9565b614e8a60608301846143b9565b95945050505050565b6000602082019050614ea860008301846143b9565b92915050565b60008160601b9050919050565b6000614ec682614eae565b9050919050565b6000614ed882614ebb565b9050919050565b614ef0614eeb8261289b565b614ecd565b82525050565b6000614f028285614df1565b602082019150614f128284614edf565b6014820191508190509392505050565b6000608082019050614f3760008301876143b9565b614f4460208301866143b9565b614f51604083018561336e565b614f5e606083018461335f565b95945050505050565b6000604082019050614f7c60008301856143b9565b614f8960208301846143b9565b939250505056fe492061636b6e6f776c65646765207468617420667265657a696e672049737375616e63652069732061207065726d616e656e7420616e642069727265766f6361626c65206368616e6765492061636b6e6f776c6564676520746861742064697361626c696e6720636f6e74726f6c6c65722069732061207065726d616e656e7420616e642069727265766f6361626c65206368616e6765a264697066735822122075135048a3b3763e44092e103a71e3f7eddebf6c42d50e88d875373ff0871dc764736f6c63430008130033",
  "immutableReferences": {},
  "source": "// SPDX-License-Identifier: MIT\npragma solidity 0.8.19;\n\nimport \"../interfaces/IPoly.sol\";\nimport \"./StatusCodes.sol\";\nimport \"../interfaces/IDataStore.sol\";\nimport \"../interfaces/ITransferManager.sol\";\n\nimport \"../tokens/SecurityTokenStorage.sol\";\nimport \"../modules/UpgradableModuleFactory.sol\";\nimport \"../modules/PermissionManager/IPermissionManager.sol\";\n\nimport \"@openzeppelin/contracts/utils/math/SafeMath.sol\";\nimport \"@openzeppelin/contracts/token/ERC20/IERC20.sol\";\n\n\nlibrary TokenLib {\n\n    using SafeMath for uint256;\n\n    struct EIP712Domain {\n        string  name;\n        uint256 chainId;\n        address verifyingContract;\n    }\n\n    struct Acknowledgment {\n        string text;\n    }\n\n    bytes32 constant EIP712DOMAIN_TYPEHASH = keccak256(\n        \"EIP712Domain(string name,uint256 chainId,address verifyingContract)\"\n    );\n\n    bytes32 constant ACK_TYPEHASH = keccak256(\n        \"Acknowledgment(string text)\"\n    );\n\n    bytes32 internal constant WHITELIST = \"WHITELIST\";\n    bytes32 internal constant INVESTORSKEY = 0xdf3a8dd24acdd05addfc6aeffef7574d2de3f844535ec91e8e0f3e45dba96731; //keccak256(abi.encodePacked(\"INVESTORS\"))\n\n    // Emit when Module get upgraded from the securityToken\n    event ModuleUpgraded(uint8[] _types, address _module);\n    // Emit when Module is archived from the SecurityToken\n    event ModuleArchived(uint8[] _types, address _module);\n    // Emit when Module is unarchived from the SecurityToken\n    event ModuleUnarchived(uint8[] _types, address _module);\n    // Emit when Module get removed from the securityToken\n    event ModuleRemoved(uint8[] _types, address _module);\n    // Emit when the budget allocated to a module is changed\n    event ModuleBudgetChanged(uint8[] _moduleTypes, address _module, uint256 _oldBudget, uint256 _budget);\n    // Emit when document is added/removed\n    event DocumentUpdated(bytes32 indexed _name, string _uri, bytes32 _documentHash);\n    event DocumentRemoved(bytes32 indexed _name, string _uri, bytes32 _documentHash);\n\n    function hash(EIP712Domain memory _eip712Domain) internal pure returns (bytes32) {\n        return keccak256(\n            abi.encode(\n                EIP712DOMAIN_TYPEHASH,\n                keccak256(bytes(_eip712Domain.name)),\n                _eip712Domain.chainId,\n                _eip712Domain.verifyingContract\n            )\n        );\n    }\n\n    function hash(Acknowledgment memory _ack) internal pure returns (bytes32) {\n        return keccak256(abi.encode(ACK_TYPEHASH, keccak256(bytes(_ack.text))));\n    }\n\n    function recoverFreezeIssuanceAckSigner(bytes calldata _signature) external view returns (address) {\n        Acknowledgment memory ack = Acknowledgment(\"I acknowledge that freezing Issuance is a permanent and irrevocable change\");\n        return extractSigner(ack, _signature);\n    }\n\n    function recoverDisableControllerAckSigner(bytes calldata _signature) external view returns (address) {\n        Acknowledgment memory ack = Acknowledgment(\"I acknowledge that disabling controller is a permanent and irrevocable change\");\n        return extractSigner(ack, _signature);\n    }\n\n    function extractSigner(Acknowledgment memory _ack, bytes memory _signature) internal view returns (address) {\n        bytes32 r;\n        bytes32 s;\n        uint8 v;\n\n        // Check the signature length\n        if (_signature.length != 65) {\n            return (address(0));\n        }\n\n        // Divide the signature in r, s and v variables\n        // ecrecover takes the signature parameters, and the only way to get them\n        // currently is to use assembly.\n        // solhint-disable-next-line no-inline-assembly\n        assembly {\n            r := mload(add(_signature, 0x20))\n            s := mload(add(_signature, 0x40))\n            v := byte(0, mload(add(_signature, 0x60)))\n        }\n\n        // Version of signature should be 27 or 28, but 0 and 1 are also possible versions\n        if (v < 27) {\n            v += 27;\n        }\n\n        // If the version is correct return the signer address\n        if (v != 27 && v != 28) {\n            return (address(0));\n        }\n\n        bytes32 DOMAIN_SEPARATOR = hash(\n            EIP712Domain(\n                {\n                    name: \"Polymath\",\n                    chainId: 1,\n                    verifyingContract: address(this)\n                }\n            )\n        );\n\n        // Note: we need to use `encodePacked` here instead of `encode`.\n        bytes32 digest = keccak256(abi.encodePacked(\n            \"\\x19\\x01\",\n            DOMAIN_SEPARATOR,\n            hash(_ack)\n        ));\n        return ecrecover(digest, v, r, s);\n    }\n\n    /**\n    * @notice Archives a module attached to the SecurityToken\n    * @param _moduleData Storage data\n    */\n    function archiveModule(SecurityTokenStorage.ModuleData storage _moduleData) external {\n        require(!_moduleData.isArchived, \"Module archived\");\n        require(_moduleData.module != address(0), \"Module missing\");\n        /*solium-disable-next-line security/no-block-members*/\n        emit ModuleArchived(_moduleData.moduleTypes, _moduleData.module);\n        _moduleData.isArchived = true;\n    }\n\n    /**\n    * @notice Unarchives a module attached to the SecurityToken\n    * @param _moduleData Storage data\n    */\n    function unarchiveModule(IModuleRegistry _moduleRegistry, SecurityTokenStorage.ModuleData storage _moduleData) external {\n        require(_moduleData.isArchived, \"Module unarchived\");\n        /*solium-disable-next-line security/no-block-members*/\n        // Check the version is still valid - can only be false if token was upgraded between unarchive / archive\n        _moduleRegistry.useModule(_moduleData.moduleFactory, true);\n        emit ModuleUnarchived(_moduleData.moduleTypes, _moduleData.module);\n        _moduleData.isArchived = false;\n    }\n\n    /**\n    * @notice Upgrades a module attached to the SecurityToken\n    * @param _moduleData Storage data\n    */\n    function upgradeModule(IModuleRegistry _moduleRegistry, SecurityTokenStorage.ModuleData storage _moduleData) external {\n        require(_moduleData.module != address(0), \"Module missing\");\n        //Check module is verified and within version bounds\n        _moduleRegistry.useModule(_moduleData.moduleFactory, true);\n        // Will revert if module isn't upgradable\n        UpgradableModuleFactory(_moduleData.moduleFactory).upgrade(_moduleData.module);\n        emit ModuleUpgraded(_moduleData.moduleTypes, _moduleData.module);\n    }\n\n    /**\n    * @notice Removes a module attached to the SecurityToken\n    * @param _module address of module to unarchive\n    */\n    function removeModule(\n        address _module,\n        mapping(uint8 => address[]) storage _modules,\n        mapping(address => SecurityTokenStorage.ModuleData) storage _modulesToData,\n        mapping(bytes32 => address[]) storage _names\n    )\n        external\n    {\n        require(_modulesToData[_module].isArchived, \"Not archived\");\n        require(_modulesToData[_module].module != address(0), \"Module missing\");\n        /*solium-disable-next-line security/no-block-members*/\n        emit ModuleRemoved(_modulesToData[_module].moduleTypes, _module);\n        // Remove from module type list\n        uint8[] memory moduleTypes = _modulesToData[_module].moduleTypes;\n        for (uint256 i = 0; i < moduleTypes.length; i++) {\n            _removeModuleWithIndex(moduleTypes[i], _modulesToData[_module].moduleIndexes[i], _modules, _modulesToData);\n            /* modulesToData[_module].moduleType[moduleTypes[i]] = false; */\n        }\n        // Remove from module names list\n        uint256 index = _modulesToData[_module].nameIndex;\n        bytes32 name = _modulesToData[_module].name;\n        uint256 length = _names[name].length;\n        _names[name][index] = _names[name][length - 1];\n        // _names[name].length = length - 1;\n        _names[name].pop();\n        if ((length - 1) != index) {\n            _modulesToData[_names[name][index]].nameIndex = index;\n        }\n        // Remove from modulesToData\n        delete _modulesToData[_module];\n    }\n\n    /**\n    * @notice Internal - Removes a module attached to the SecurityToken by index\n    */\n    function _removeModuleWithIndex(\n        uint8 _type,\n        uint256 _index,\n        mapping(uint8 => address[]) storage _modules,\n        mapping(address => SecurityTokenStorage.ModuleData) storage _modulesToData\n    )\n        internal\n    {\n        uint256 length = _modules[_type].length;\n        _modules[_type][_index] = _modules[_type][length - 1];\n        // _modules[_type].length = length - 1;\n        _modules[_type].pop();\n\n\n        if ((length - 1) != _index) {\n            //Need to find index of _type in moduleTypes of module we are moving\n            uint8[] memory newTypes = _modulesToData[_modules[_type][_index]].moduleTypes;\n            for (uint256 i = 0; i < newTypes.length; i++) {\n                if (newTypes[i] == _type) {\n                    _modulesToData[_modules[_type][_index]].moduleIndexes[i] = _index;\n                }\n            }\n        }\n    }\n\n    /**\n    * @notice allows owner to increase/decrease POLY approval of one of the modules\n    * @param _module module address\n    * @param _change change in allowance\n    * @param _increase true if budget has to be increased, false if decrease\n    */\n    function changeModuleBudget(\n        address _module,\n        uint256 _change,\n        bool _increase,\n        IERC20 _polyToken,\n        mapping(address => SecurityTokenStorage.ModuleData) storage _modulesToData\n    )\n        external\n    {\n        require(_modulesToData[_module].module != address(0), \"Module missing\");\n        uint256 currentAllowance = _polyToken.allowance(address(this), _module);\n        uint256 newAllowance;\n        if (_increase) {\n            require(IPoly(address(_polyToken)).increaseApproval(_module, _change), \"IncreaseApproval fail\");\n            newAllowance = currentAllowance.add(_change);\n        } else {\n            require(IPoly(address(_polyToken)).decreaseApproval(_module, _change), \"Insufficient allowance\");\n            newAllowance = currentAllowance.sub(_change);\n        }\n        emit ModuleBudgetChanged(_modulesToData[_module].moduleTypes, _module, currentAllowance, newAllowance);\n    }\n\n    /**\n     * @notice Queries a value at a defined checkpoint\n     * @param _checkpoints is array of Checkpoint objects\n     * @param _checkpointId is the Checkpoint ID to query\n     * @param _currentValue is the Current value of checkpoint\n     * @return uint256\n     */\n    function getValueAt(SecurityTokenStorage.Checkpoint[] storage _checkpoints, uint256 _checkpointId, uint256 _currentValue) external view returns(uint256) {\n        //Checkpoint id 0 is when the token is first created - everyone has a zero balance\n        if (_checkpointId == 0) {\n            return 0;\n        }\n        if (_checkpoints.length == 0) {\n            return _currentValue;\n        }\n        if (_checkpoints[0].checkpointId >= _checkpointId) {\n            return _checkpoints[0].value;\n        }\n        if (_checkpoints[_checkpoints.length - 1].checkpointId < _checkpointId) {\n            return _currentValue;\n        }\n        if (_checkpoints[_checkpoints.length - 1].checkpointId == _checkpointId) {\n            return _checkpoints[_checkpoints.length - 1].value;\n        }\n        uint256 min = 0;\n        uint256 max = _checkpoints.length - 1;\n        while (max > min) {\n            uint256 mid = (max + min) / 2;\n            if (_checkpoints[mid].checkpointId == _checkpointId) {\n                max = mid;\n                break;\n            }\n            if (_checkpoints[mid].checkpointId < _checkpointId) {\n                min = mid + 1;\n            } else {\n                max = mid;\n            }\n        }\n        return _checkpoints[max].value;\n    }\n\n    /**\n     * @notice Stores the changes to the checkpoint objects\n     * @param _checkpoints is the affected checkpoint object array\n     * @param _newValue is the new value that needs to be stored\n     */\n    function adjustCheckpoints(SecurityTokenStorage.Checkpoint[] storage _checkpoints, uint256 _newValue, uint256 _currentCheckpointId) external {\n        //No checkpoints set yet\n        if (_currentCheckpointId == 0) {\n            return;\n        }\n        //No new checkpoints since last update\n        if ((_checkpoints.length > 0) && (_checkpoints[_checkpoints.length - 1].checkpointId == _currentCheckpointId)) {\n            return;\n        }\n        //New checkpoint, so record balance\n        _checkpoints.push(SecurityTokenStorage.Checkpoint({checkpointId: _currentCheckpointId, value: _newValue}));\n    }\n\n    /**\n    * @notice Keeps track of the number of non-zero token holders\n    * @param _holderCount Number of current token holders\n    * @param _from Sender of transfer\n    * @param _to Receiver of transfer\n    * @param _value Value of transfer\n    * @param _balanceTo Balance of the _to address\n    * @param _balanceFrom Balance of the _from address\n    * @param _dataStore address of data store\n    */\n    function adjustInvestorCount(\n        uint256 _holderCount,\n        address _from,\n        address _to,\n        uint256 _value,\n        uint256 _balanceTo,\n        uint256 _balanceFrom,\n        IDataStore _dataStore\n    )\n        external\n        returns(uint256)\n    {\n        uint256 holderCount = _holderCount;\n        if ((_value == 0) || (_from == _to)) {\n            return holderCount;\n        }\n        // Check whether receiver is a new token holder\n        if ((_balanceTo == 0) && (_to != address(0))) {\n            holderCount = holderCount.add(1);\n            if (!_isExistingInvestor(_to, _dataStore)) {\n                _dataStore.insertAddress(INVESTORSKEY, _to);\n                //KYC data can not be present if added is false and hence we can set packed KYC as uint256(1) to set added as true\n                _dataStore.setUint256(_getKey(WHITELIST, _to), uint256(1));\n            }\n        }\n        // Check whether sender is moving all of their tokens\n        if (_value == _balanceFrom) {\n            holderCount = holderCount.sub(1);\n        }\n\n        return holderCount;\n    }\n\n    /**\n     * @notice Used to attach a new document to the contract, or update the URI or hash of an existing attached document\n     * @param name Name of the document. It should be unique always\n     * @param uri Off-chain uri of the document from where it is accessible to investors/advisors to read.\n     * @param documentHash hash (of the contents) of the document.\n     */\n    function setDocument(\n        mapping(bytes32 => SecurityTokenStorage.Document) storage document,\n        bytes32[] storage docNames,\n        mapping(bytes32 => uint256) storage docIndexes,\n        bytes32 name,\n        string calldata uri,\n        bytes32 documentHash\n    )\n        external\n    {\n        require(name != bytes32(0), \"Bad name\");\n        require(bytes(uri).length > 0, \"Bad uri\");\n        if (document[name].lastModified == uint256(0)) {\n            docNames.push(name);\n            docIndexes[name] = docNames.length;\n        }\n        document[name] = SecurityTokenStorage.Document(documentHash, block.timestamp, uri);\n        emit DocumentUpdated(name, uri, documentHash);\n    }\n\n    /**\n     * @notice Used to remove an existing document from the contract by giving the name of the document.\n     * @dev Can only be executed by the owner of the contract.\n     * @param name Name of the document. It should be unique always\n     */\n    function removeDocument(\n        mapping(bytes32 => SecurityTokenStorage.Document) storage document,\n        bytes32[] storage docNames,\n        mapping(bytes32 => uint256) storage docIndexes,\n        bytes32 name\n    )\n        external\n    {\n        require(document[name].lastModified != uint256(0), \"Not existed\");\n        uint256 index = docIndexes[name] - 1;\n        if (index != docNames.length - 1) {\n            docNames[index] = docNames[docNames.length - 1];\n            docIndexes[docNames[index]] = index + 1;\n        }\n        docNames.pop();\n\n        emit DocumentRemoved(name, document[name].uri, document[name].docHash);\n        delete document[name];\n    }\n\n    /**\n     * @notice Validate transfer with TransferManager module if it exists\n     * @dev TransferManager module has a key of 2\n     * @param modules Array of addresses for transfer managers\n     * @param modulesToData Mapping of the modules details\n     * @param from sender of transfer\n     * @param to receiver of transfer\n     * @param value value of transfer\n     * @param data data to indicate validation\n     * @param transfersFrozen whether the transfer are frozen or not.\n     * @return bool\n     */\n    function verifyTransfer(\n        address[] storage modules,\n        mapping(address => SecurityTokenStorage.ModuleData) storage modulesToData,\n        address from,\n        address to,\n        uint256 value,\n        bytes memory data,\n        bool transfersFrozen\n    )\n        public //Marked public to avoid stack too deep error\n        view\n        returns(bool, bytes32)\n    {\n        if (!transfersFrozen) {\n            bool isInvalid = false;\n            bool isValid = false;\n            bool isForceValid = false;\n            // Use the local variables to avoid the stack too deep error\n            bytes32 appCode;\n            for (uint256 i = 0; i < modules.length; i++) {\n                if (!modulesToData[modules[i]].isArchived) {\n                    (ITransferManager.Result valid, bytes32 reason) = ITransferManager(modules[i]).verifyTransfer(from, to, value, data);\n                    if (valid == ITransferManager.Result.INVALID) {\n                        isInvalid = true;\n                        appCode = reason;\n                    } else if (valid == ITransferManager.Result.VALID) {\n                        isValid = true;\n                    } else if (valid == ITransferManager.Result.FORCE_VALID) {\n                        isForceValid = true;\n                    }\n                }\n            }\n            // Use the local variables to avoid the stack too deep error\n            isValid = isForceValid ? true : (isInvalid ? false : isValid);\n            return (isValid, isValid ? bytes32(StatusCodes.code(StatusCodes.Status.TransferSuccess)): appCode);\n        }\n        return (false, bytes32(StatusCodes.code(StatusCodes.Status.TransfersHalted)));\n    }\n\n    function canTransfer(\n        bool success,\n        bytes32 appCode,\n        address to,\n        uint256 value,\n        uint256 balanceOfFrom\n    )\n        external\n        pure\n        returns (bytes1, bytes32)\n    {\n        if (!success)\n            return (StatusCodes.code(StatusCodes.Status.TransferFailure), appCode);\n\n        if (balanceOfFrom < value)\n            return (StatusCodes.code(StatusCodes.Status.InsufficientBalance), bytes32(0));\n\n        if (to == address(0))\n            return (StatusCodes.code(StatusCodes.Status.InvalidReceiver), bytes32(0));\n\n        // Balance overflow can never happen due to totalsupply being a uint256 as well\n        // else if (!KindMath.checkAdd(balanceOf(_to), _value))\n        //     return (0x50, bytes32(0));\n\n        return (StatusCodes.code(StatusCodes.Status.TransferSuccess), bytes32(0));\n    }\n\n    function _getKey(bytes32 _key1, address _key2) internal pure returns(bytes32) {\n        return bytes32(keccak256(abi.encodePacked(_key1, _key2)));\n    }\n\n    function _isExistingInvestor(address _investor, IDataStore dataStore) internal view returns(bool) {\n        uint256 data = dataStore.getUint256(_getKey(WHITELIST, _investor));\n        //extracts `added` from packed `whitelistData`\n        return uint8(data) == 0 ? false : true;\n    }\n\n}\n",
  "sourcePath": "/Users/hanbin/opusm/st-mvp/contracts/libraries/TokenLib.sol",
  "compiler": {
    "name": "solc",
    "version": "0.8.19+commit.7dd6d404.Emscripten.clang"
  },
  "schemaVersion": "3.4.10",
  "updatedAt": "2023-07-24T08:15:11.951Z",
  "devdoc": {
    "kind": "dev",
    "methods": {
      "adjustCheckpoints(SecurityTokenStorage.Checkpoint[] storage,uint256,uint256)": {
        "params": {
          "_checkpoints": "is the affected checkpoint object array",
          "_newValue": "is the new value that needs to be stored"
        }
      },
      "adjustInvestorCount(uint256,address,address,uint256,uint256,uint256,IDataStore)": {
        "params": {
          "_balanceFrom": "Balance of the _from address",
          "_balanceTo": "Balance of the _to address",
          "_dataStore": "address of data store",
          "_from": "Sender of transfer",
          "_holderCount": "Number of current token holders",
          "_to": "Receiver of transfer",
          "_value": "Value of transfer"
        }
      },
      "archiveModule(SecurityTokenStorage.ModuleData storage)": {
        "params": {
          "_moduleData": "Storage data"
        }
      },
      "changeModuleBudget(address,uint256,bool,IERC20,mapping(address => SecurityTokenStorage.ModuleData) storage)": {
        "params": {
          "_change": "change in allowance",
          "_increase": "true if budget has to be increased, false if decrease",
          "_module": "module address"
        }
      },
      "getValueAt(SecurityTokenStorage.Checkpoint[] storage,uint256,uint256)": {
        "params": {
          "_checkpointId": "is the Checkpoint ID to query",
          "_checkpoints": "is array of Checkpoint objects",
          "_currentValue": "is the Current value of checkpoint"
        },
        "returns": {
          "_0": "uint256"
        }
      },
      "removeDocument(mapping(bytes32 => SecurityTokenStorage.Document) storage,bytes32[] storage,mapping(bytes32 => uint256) storage,bytes32)": {
        "details": "Can only be executed by the owner of the contract.",
        "params": {
          "name": "Name of the document. It should be unique always"
        }
      },
      "removeModule(address,mapping(uint8 => address[]) storage,mapping(address => SecurityTokenStorage.ModuleData) storage,mapping(bytes32 => address[]) storage)": {
        "params": {
          "_module": "address of module to unarchive"
        }
      },
      "setDocument(mapping(bytes32 => SecurityTokenStorage.Document) storage,bytes32[] storage,mapping(bytes32 => uint256) storage,bytes32,string,bytes32)": {
        "params": {
          "documentHash": "hash (of the contents) of the document.",
          "name": "Name of the document. It should be unique always",
          "uri": "Off-chain uri of the document from where it is accessible to investors/advisors to read."
        }
      },
      "unarchiveModule(IModuleRegistry,SecurityTokenStorage.ModuleData storage)": {
        "params": {
          "_moduleData": "Storage data"
        }
      },
      "upgradeModule(IModuleRegistry,SecurityTokenStorage.ModuleData storage)": {
        "params": {
          "_moduleData": "Storage data"
        }
      },
      "verifyTransfer(address[] storage,mapping(address => SecurityTokenStorage.ModuleData) storage,address,address,uint256,bytes,bool)": {
        "details": "TransferManager module has a key of 2",
        "params": {
          "data": "data to indicate validation",
          "from": "sender of transfer",
          "modules": "Array of addresses for transfer managers",
          "modulesToData": "Mapping of the modules details",
          "to": "receiver of transfer",
          "transfersFrozen": "whether the transfer are frozen or not.",
          "value": "value of transfer"
        },
        "returns": {
          "_0": "bool"
        }
      }
    },
    "version": 1
  },
  "userdoc": {
    "kind": "user",
    "methods": {
      "adjustCheckpoints(SecurityTokenStorage.Checkpoint[] storage,uint256,uint256)": {
        "notice": "Stores the changes to the checkpoint objects"
      },
      "adjustInvestorCount(uint256,address,address,uint256,uint256,uint256,IDataStore)": {
        "notice": "Keeps track of the number of non-zero token holders"
      },
      "archiveModule(SecurityTokenStorage.ModuleData storage)": {
        "notice": "Archives a module attached to the SecurityToken"
      },
      "changeModuleBudget(address,uint256,bool,IERC20,mapping(address => SecurityTokenStorage.ModuleData) storage)": {
        "notice": "allows owner to increase/decrease POLY approval of one of the modules"
      },
      "getValueAt(SecurityTokenStorage.Checkpoint[] storage,uint256,uint256)": {
        "notice": "Queries a value at a defined checkpoint"
      },
      "removeDocument(mapping(bytes32 => SecurityTokenStorage.Document) storage,bytes32[] storage,mapping(bytes32 => uint256) storage,bytes32)": {
        "notice": "Used to remove an existing document from the contract by giving the name of the document."
      },
      "removeModule(address,mapping(uint8 => address[]) storage,mapping(address => SecurityTokenStorage.ModuleData) storage,mapping(bytes32 => address[]) storage)": {
        "notice": "Removes a module attached to the SecurityToken"
      },
      "setDocument(mapping(bytes32 => SecurityTokenStorage.Document) storage,bytes32[] storage,mapping(bytes32 => uint256) storage,bytes32,string,bytes32)": {
        "notice": "Used to attach a new document to the contract, or update the URI or hash of an existing attached document"
      },
      "unarchiveModule(IModuleRegistry,SecurityTokenStorage.ModuleData storage)": {
        "notice": "Unarchives a module attached to the SecurityToken"
      },
      "upgradeModule(IModuleRegistry,SecurityTokenStorage.ModuleData storage)": {
        "notice": "Upgrades a module attached to the SecurityToken"
      },
      "verifyTransfer(address[] storage,mapping(address => SecurityTokenStorage.ModuleData) storage,address,address,uint256,bytes,bool)": {
        "notice": "Validate transfer with TransferManager module if it exists"
      }
    },
    "version": 1
  }
}